{
  "contractName": "MatchFactory",
  "abi": [
    {
      "constant": true,
      "inputs": [
        {
          "name": "",
          "type": "bytes32"
        }
      ],
      "name": "hashToMatchId",
      "outputs": [
        {
          "name": "",
          "type": "uint32"
        }
      ],
      "payable": false,
      "stateMutability": "view",
      "type": "function"
    },
    {
      "constant": true,
      "inputs": [
        {
          "name": "",
          "type": "uint256"
        }
      ],
      "name": "matches",
      "outputs": [
        {
          "name": "teamATotalBets",
          "type": "uint256"
        },
        {
          "name": "teamBTotalBets",
          "type": "uint256"
        },
        {
          "name": "startTime",
          "type": "uint64"
        },
        {
          "name": "matchId",
          "type": "uint32"
        },
        {
          "name": "id",
          "type": "uint32"
        },
        {
          "name": "teamA",
          "type": "bytes32"
        },
        {
          "name": "teamB",
          "type": "bytes32"
        },
        {
          "name": "gameType",
          "type": "bytes32"
        },
        {
          "name": "winner",
          "type": "bytes32"
        },
        {
          "name": "withdrawable",
          "type": "bool"
        },
        {
          "name": "canceled",
          "type": "bool"
        },
        {
          "name": "bettable",
          "type": "bool"
        }
      ],
      "payable": false,
      "stateMutability": "view",
      "type": "function"
    },
    {
      "constant": true,
      "inputs": [],
      "name": "owner",
      "outputs": [
        {
          "name": "",
          "type": "address"
        }
      ],
      "payable": false,
      "stateMutability": "view",
      "type": "function"
    },
    {
      "constant": false,
      "inputs": [
        {
          "name": "newOwner",
          "type": "address"
        }
      ],
      "name": "transferOwnership",
      "outputs": [],
      "payable": false,
      "stateMutability": "nonpayable",
      "type": "function"
    },
    {
      "anonymous": false,
      "inputs": [
        {
          "indexed": false,
          "name": "startTime",
          "type": "uint64"
        },
        {
          "indexed": false,
          "name": "id",
          "type": "uint32"
        },
        {
          "indexed": false,
          "name": "teamA",
          "type": "bytes32"
        },
        {
          "indexed": false,
          "name": "teamB",
          "type": "bytes32"
        }
      ],
      "name": "NewMatch",
      "type": "event"
    },
    {
      "anonymous": false,
      "inputs": [
        {
          "indexed": false,
          "name": "matchId",
          "type": "uint32"
        },
        {
          "indexed": false,
          "name": "withdrawable",
          "type": "bool"
        },
        {
          "indexed": false,
          "name": "canceled",
          "type": "bool"
        },
        {
          "indexed": false,
          "name": "bettable",
          "type": "bool"
        }
      ],
      "name": "CancelMatch",
      "type": "event"
    },
    {
      "anonymous": false,
      "inputs": [
        {
          "indexed": true,
          "name": "previousOwner",
          "type": "address"
        },
        {
          "indexed": true,
          "name": "newOwner",
          "type": "address"
        }
      ],
      "name": "OwnershipTransferred",
      "type": "event"
    },
    {
      "constant": false,
      "inputs": [
        {
          "name": "_startTime",
          "type": "uint256"
        },
        {
          "name": "_matchId",
          "type": "uint256"
        },
        {
          "name": "_teamA",
          "type": "bytes32"
        },
        {
          "name": "_teamB",
          "type": "bytes32"
        },
        {
          "name": "_gameType",
          "type": "bytes32"
        },
        {
          "name": "_matchHash",
          "type": "bytes32"
        }
      ],
      "name": "addMatch",
      "outputs": [],
      "payable": false,
      "stateMutability": "nonpayable",
      "type": "function"
    },
    {
      "constant": false,
      "inputs": [
        {
          "name": "_matchHash",
          "type": "bytes32"
        }
      ],
      "name": "cancelMatch",
      "outputs": [],
      "payable": false,
      "stateMutability": "nonpayable",
      "type": "function"
    },
    {
      "constant": true,
      "inputs": [],
      "name": "getMatchesCount",
      "outputs": [
        {
          "name": "",
          "type": "uint256"
        }
      ],
      "payable": false,
      "stateMutability": "view",
      "type": "function"
    },
    {
      "constant": true,
      "inputs": [
        {
          "name": "indexes",
          "type": "uint256[]"
        }
      ],
      "name": "getMatchesInfo",
      "outputs": [
        {
          "name": "",
          "type": "uint32[]"
        },
        {
          "name": "",
          "type": "uint64[]"
        },
        {
          "name": "",
          "type": "uint32[]"
        },
        {
          "name": "",
          "type": "bytes32[]"
        },
        {
          "name": "",
          "type": "bytes32[]"
        },
        {
          "name": "",
          "type": "bytes32[]"
        }
      ],
      "payable": false,
      "stateMutability": "view",
      "type": "function"
    },
    {
      "constant": true,
      "inputs": [
        {
          "name": "indexes",
          "type": "uint256[]"
        }
      ],
      "name": "getMatchesStatus",
      "outputs": [
        {
          "name": "",
          "type": "bool[]"
        },
        {
          "name": "",
          "type": "bool[]"
        },
        {
          "name": "",
          "type": "bool[]"
        }
      ],
      "payable": false,
      "stateMutability": "view",
      "type": "function"
    },
    {
      "constant": true,
      "inputs": [
        {
          "name": "indexes",
          "type": "uint256[]"
        }
      ],
      "name": "getMatchesResult",
      "outputs": [
        {
          "name": "",
          "type": "bytes32[]"
        },
        {
          "name": "",
          "type": "uint256[]"
        },
        {
          "name": "",
          "type": "uint256[]"
        }
      ],
      "payable": false,
      "stateMutability": "view",
      "type": "function"
    }
  ],
  "bytecode": "0x6080604052336000806101000a81548173ffffffffffffffffffffffffffffffffffffffff021916908373ffffffffffffffffffffffffffffffffffffffff16021790555061173a806100536000396000f3006080604052600436106100a4576000357c0100000000000000000000000000000000000000000000000000000000900463ffffffff1680630c638701146100a957806318cd4d83146101c95780634768d4ef1461021a5780636141654b146103005780638da5cb5b146104f85780639cd20cb51461054f578063b4ed9af5146105be578063c82db8f9146105e9578063e053fa611461061a578063f2fde38b1461073a575b600080fd5b3480156100b557600080fd5b506100e260048036038101908080359060200190820180359060200191909192939192939050505061077d565b60405180806020018060200180602001848103845287818151815260200191508051906020019060200280838360005b8381101561012d578082015181840152602081019050610112565b50505050905001848103835286818151815260200191508051906020019060200280838360005b8381101561016f578082015181840152602081019050610154565b50505050905001848103825285818151815260200191508051906020019060200280838360005b838110156101b1578082015181840152602081019050610196565b50505050905001965050505050505060405180910390f35b3480156101d557600080fd5b506101f86004803603810190808035600019169060200190929190505050610984565b604051808263ffffffff1663ffffffff16815260200191505060405180910390f35b34801561022657600080fd5b50610245600480360381019080803590602001909291905050506109a7565b604051808d81526020018c81526020018b67ffffffffffffffff1667ffffffffffffffff1681526020018a63ffffffff1663ffffffff1681526020018963ffffffff1663ffffffff16815260200188600019166000191681526020018760001916600019168152602001866000191660001916815260200185600019166000191681526020018415151515815260200183151515158152602001821515151581526020019c5050505050505050505050505060405180910390f35b34801561030c57600080fd5b50610339600480360381019080803590602001908201803590602001919091929391929390505050610a71565b6040518080602001806020018060200180602001806020018060200187810387528d818151815260200191508051906020019060200280838360005b83811015610390578082015181840152602081019050610375565b5050505090500187810386528c818151815260200191508051906020019060200280838360005b838110156103d25780820151818401526020810190506103b7565b5050505090500187810385528b818151815260200191508051906020019060200280838360005b838110156104145780820151818401526020810190506103f9565b5050505090500187810384528a818151815260200191508051906020019060200280838360005b8381101561045657808201518184015260208101905061043b565b50505050905001878103835289818151815260200191508051906020019060200280838360005b8381101561049857808201518184015260208101905061047d565b50505050905001878103825288818151815260200191508051906020019060200280838360005b838110156104da5780820151818401526020810190506104bf565b505050509050019c5050505050505050505050505060405180910390f35b34801561050457600080fd5b5061050d610e6d565b604051808273ffffffffffffffffffffffffffffffffffffffff1673ffffffffffffffffffffffffffffffffffffffff16815260200191505060405180910390f35b34801561055b57600080fd5b506105bc60048036038101908080359060200190929190803590602001909291908035600019169060200190929190803560001916906020019092919080356000191690602001909291908035600019169060200190929190505050610e92565b005b3480156105ca57600080fd5b506105d361121e565b6040518082815260200191505060405180910390f35b3480156105f557600080fd5b50610618600480360381019080803560001916906020019092919050505061122b565b005b34801561062657600080fd5b506106536004803603810190808035906020019082018035906020019190919293919293905050506113e1565b60405180806020018060200180602001848103845287818151815260200191508051906020019060200280838360005b8381101561069e578082015181840152602081019050610683565b50505050905001848103835286818151815260200191508051906020019060200280838360005b838110156106e05780820151818401526020810190506106c5565b50505050905001848103825285818151815260200191508051906020019060200280838360005b83811015610722578082015181840152602081019050610707565b50505050905001965050505050505060405180910390f35b34801561074657600080fd5b5061077b600480360381019080803573ffffffffffffffffffffffffffffffffffffffff1690602001909291905050506115b9565b005b6060806060806060806000888890506040519080825280602002602001820160405280156107ba5781602001602082028038833980820191505090505b509350888890506040519080825280602002602001820160405280156107ef5781602001602082028038833980820191505090505b509250888890506040519080825280602002602001820160405280156108245781602001602082028038833980820191505090505b509150600090505b88889050811015610970576001898983818110151561084757fe5b9050602002013581548110151561085a57fe5b90600052602060002090600a020160070160009054906101000a900460ff16848281518110151561088757fe5b9060200190602002019015159081151581525050600189898381811015156108ab57fe5b905060200201358154811015156108be57fe5b90600052602060002090600a020160070160019054906101000a900460ff1683828151811015156108eb57fe5b90602001906020020190151590811515815250506001898983818110151561090f57fe5b9050602002013581548110151561092257fe5b90600052602060002090600a020160070160029054906101000a900460ff16828281518110151561094f57fe5b9060200190602002019015159081151581525050808060010191505061082c565b838383965096509650505050509250925092565b60026020528060005260406000206000915054906101000a900463ffffffff1681565b6001818154811015156109b657fe5b90600052602060002090600a02016000915090508060000154908060010154908060020160009054906101000a900467ffffffffffffffff16908060020160089054906101000a900463ffffffff169080600201600c9054906101000a900463ffffffff16908060030154908060040154908060050154908060060154908060070160009054906101000a900460ff16908060070160019054906101000a900460ff16908060070160029054906101000a900460ff1690508c565b60608060608060608060608060608060608060008e8e9050604051908082528060200260200182016040528015610ab75781602001602082028038833980820191505090505b5096508e8e9050604051908082528060200260200182016040528015610aec5781602001602082028038833980820191505090505b5095508e8e9050604051908082528060200260200182016040528015610b215781602001602082028038833980820191505090505b5094508e8e9050604051908082528060200260200182016040528015610b565781602001602082028038833980820191505090505b5093508e8e9050604051908082528060200260200182016040528015610b8b5781602001602082028038833980820191505090505b5092508e8e9050604051908082528060200260200182016040528015610bc05781602001602082028038833980820191505090505b509150600090505b8e8e9050811015610e4a5760018f8f838181101515610be357fe5b90506020020135815481101515610bf657fe5b90600052602060002090600a0201600201600c9054906101000a900463ffffffff168782815181101515610c2657fe5b9060200190602002019063ffffffff16908163ffffffff168152505060018f8f838181101515610c5257fe5b90506020020135815481101515610c6557fe5b90600052602060002090600a020160020160009054906101000a900467ffffffffffffffff168682815181101515610c9957fe5b9060200190602002019067ffffffffffffffff16908167ffffffffffffffff168152505060018f8f838181101515610ccd57fe5b90506020020135815481101515610ce057fe5b90600052602060002090600a020160020160089054906101000a900463ffffffff168582815181101515610d1057fe5b9060200190602002019063ffffffff16908163ffffffff168152505060018f8f838181101515610d3c57fe5b90506020020135815481101515610d4f57fe5b90600052602060002090600a0201600301548482815181101515610d6f57fe5b90602001906020020190600019169081600019168152505060018f8f838181101515610d9757fe5b90506020020135815481101515610daa57fe5b90600052602060002090600a0201600401548382815181101515610dca57fe5b90602001906020020190600019169081600019168152505060018f8f838181101515610df257fe5b90506020020135815481101515610e0557fe5b90600052602060002090600a0201600501548282815181101515610e2557fe5b9060200190602002019060001916908160001916815250508080600101915050610bc8565b8686868686869c509c509c509c509c509c50505050505050509295509295509295565b6000809054906101000a900473ffffffffffffffffffffffffffffffffffffffff1681565b60008060009054906101000a900473ffffffffffffffffffffffffffffffffffffffff1673ffffffffffffffffffffffffffffffffffffffff163373ffffffffffffffffffffffffffffffffffffffff16141515610eef57600080fd5b868042101515610efe57600080fd5b8767ffffffffffffffff1688141515610f1657600080fd5b8663ffffffff1687141515610f2a57600080fd5b600060026000856000191660001916815260200190815260200160002060009054906101000a900463ffffffff1663ffffffff16141515610f6a57600080fd5b6001806101806040519081016040528060008152602001600081526020018b67ffffffffffffffff1681526020018a63ffffffff16815260200160018054905063ffffffff16815260200189600019168152602001886000191681526020018760001916815260200160008019168152602001600015158152602001600015158152602001600115158152509080600181540180825580915050906001820390600052602060002090600a020160009091929091909150600082015181600001556020820151816001015560408201518160020160006101000a81548167ffffffffffffffff021916908367ffffffffffffffff16021790555060608201518160020160086101000a81548163ffffffff021916908363ffffffff160217905550608082015181600201600c6101000a81548163ffffffff021916908363ffffffff16021790555060a0820151816003019060001916905560c0820151816004019060001916905560e0820151816005019060001916905561010082015181600601906000191690556101208201518160070160006101000a81548160ff0219169083151502179055506101408201518160070160016101000a81548160ff0219169083151502179055506101608201518160070160026101000a81548160ff02191690831515021790555050500391508160026000856000191660001916815260200190815260200160002060006101000a81548163ffffffff021916908363ffffffff1602179055507f2353e1682baae4611e234e048b2703b2e3bde88b18af6faeb3b462f39572939988838888604051808567ffffffffffffffff1667ffffffffffffffff1681526020018463ffffffff1663ffffffff1681526020018360001916600019168152602001826000191660001916815260200194505050505060405180910390a15050505050505050565b6000600180549050905090565b60008060009054906101000a900473ffffffffffffffffffffffffffffffffffffffff1673ffffffffffffffffffffffffffffffffffffffff163373ffffffffffffffffffffffffffffffffffffffff1614151561128857600080fd5b600160026000846000191660001916815260200190815260200160002060009054906101000a900463ffffffff1663ffffffff168154811015156112c857fe5b90600052602060002090600a0201905060018160070160016101000a81548160ff02191690831515021790555060018160070160006101000a81548160ff02191690831515021790555060008160070160026101000a81548160ff0219169083151502179055507f0cdccc5ba942abcedd6ee843a02109a12c92959308571967737538fa1a7e93818160020160089054906101000a900463ffffffff168260070160009054906101000a900460ff168360070160019054906101000a900460ff168460070160029054906101000a900460ff16604051808563ffffffff1663ffffffff16815260200184151515158152602001831515151581526020018215151515815260200194505050505060405180910390a15050565b60608060608060608060008888905060405190808252806020026020018201604052801561141e5781602001602082028038833980820191505090505b509350888890506040519080825280602002602001820160405280156114535781602001602082028038833980820191505090505b509250888890506040519080825280602002602001820160405280156114885781602001602082028038833980820191505090505b509150600090505b888890508110156115a557600189898381811015156114ab57fe5b905060200201358154811015156114be57fe5b90600052602060002090600a02016006015484828151811015156114de57fe5b9060200190602002019060001916908160001916815250506001898983818110151561150657fe5b9050602002013581548110151561151957fe5b90600052602060002090600a020160000154838281518110151561153957fe5b90602001906020020181815250506001898983818110151561155757fe5b9050602002013581548110151561156a57fe5b90600052602060002090600a020160010154828281518110151561158a57fe5b90602001906020020181815250508080600101915050611490565b838383965096509650505050509250925092565b6000809054906101000a900473ffffffffffffffffffffffffffffffffffffffff1673ffffffffffffffffffffffffffffffffffffffff163373ffffffffffffffffffffffffffffffffffffffff1614151561161457600080fd5b600073ffffffffffffffffffffffffffffffffffffffff168173ffffffffffffffffffffffffffffffffffffffff161415151561165057600080fd5b8073ffffffffffffffffffffffffffffffffffffffff166000809054906101000a900473ffffffffffffffffffffffffffffffffffffffff1673ffffffffffffffffffffffffffffffffffffffff167f8be0079c531659141344cd1fd0a4f28419497f9722a3daafe3b4186f6b6457e060405160405180910390a3806000806101000a81548173ffffffffffffffffffffffffffffffffffffffff021916908373ffffffffffffffffffffffffffffffffffffffff160217905550505600a165627a7a72305820d0cbf6c5e910ae9f538f54e37af09c8aaa51e3d4abca93d264e456d0d7c643ba0029",
  "source": "pragma solidity ^0.4.24;\n\nimport \"./Ownable.sol\";\n\ncontract MatchFactory is Ownable {\n\n  event NewMatch(uint64 startTime, uint32 id, bytes32 teamA, bytes32 teamB);\n  event CancelMatch(uint32 matchId, bool withdrawable, bool canceled, bool bettable);\n\n  struct Match {\n    uint teamATotalBets;\n    uint teamBTotalBets;\n    uint64 startTime;\n    uint32 matchId;\n    uint32 id;\n    bytes32 teamA;\n    bytes32 teamB;\n    bytes32 gameType;\n    bytes32 winner;\n    bool withdrawable;\n    bool canceled;\n    bool bettable;\n    mapping (address => uint) teamABets;\n    mapping (address => uint) teamBBets;\n  }\n\n  modifier beforeStart(uint256 _timestamp) {\n    require(now < _timestamp);\n    _;\n  }\n\n  Match[] public matches;\n  mapping(bytes32 => uint32) public hashToMatchId;\n\n  function addMatch(\n    uint256 _startTime, \n    uint256 _matchId, \n    bytes32 _teamA, \n    bytes32 _teamB, \n    bytes32 _gameType,\n    bytes32 _matchHash\n  ) \n    external \n    onlyOwner \n    beforeStart(_startTime) \n  {\n    require(_startTime == uint256(uint64(_startTime)));\n    require(_matchId == uint256(uint32(_matchId)));\n    require(hashToMatchId[_matchHash] == 0);    \n\n    uint id = matches.push(Match({\n      startTime: uint64(_startTime),\n      matchId: uint32(_matchId),\n      id: uint32(matches.length),\n      teamATotalBets: 0,\n      teamBTotalBets: 0,\n      teamA: _teamA,\n      teamB: _teamB,\n      gameType: _gameType,\n      winner: \"\",\n      withdrawable: false,\n      canceled: false,\n      bettable: true\n    })) - 1;\n    \n    hashToMatchId[_matchHash] = uint32(id);\n    emit NewMatch(uint64(_startTime), uint32(id), _teamA, _teamB);\n  }\n\n  function cancelMatch(bytes32 _matchHash) external onlyOwner {\n    Match storage m = matches[hashToMatchId[_matchHash]];\n    m.canceled = true;\n    m.withdrawable = true;\n    m.bettable = false;\n    emit CancelMatch(m.matchId, m.withdrawable, m.canceled, m.bettable);\n  }\n\n  function getMatchesCount() public view returns (uint) {\n    return matches.length;\n  }\n\n  // The getters for the for the Matches struct has been separated into different \n  // functions because of solidity's 16 local variable limitation\n  function getMatchesInfo(uint256[] indexes) \n    external \n    view \n    returns (\n      uint32[],\n      uint64[],\n      uint32[],\n      bytes32[],\n      bytes32[],\n      bytes32[]\n    ) {\n\n      uint32[] memory ids = new uint32[](indexes.length);\n      uint64[] memory startTimes = new uint64[](indexes.length);\n      uint32[] memory matchIds = new uint32[](indexes.length);\n      bytes32[] memory teamAs = new bytes32[](indexes.length);\n      bytes32[] memory teamBs = new bytes32[](indexes.length);\n      bytes32[] memory gameTypesArray = new bytes32[](indexes.length);\n\n      for (uint i = 0; i < indexes.length; i++) {\n        ids[i] = matches[indexes[i]].id;\n        startTimes[i] = matches[indexes[i]].startTime;\n        matchIds[i] = matches[indexes[i]].matchId;\n        teamAs[i] = matches[indexes[i]].teamA;\n        teamBs[i] = matches[indexes[i]].teamB;\n        gameTypesArray[i] = matches[indexes[i]].gameType;\n      }\n\n      return (ids, startTimes, matchIds, teamAs, teamBs, gameTypesArray);\n  }\n\n  function getMatchesStatus(uint256[] indexes) \n    external \n    view \n    returns (\n      bool[],\n      bool[],\n      bool[]\n    ) {\n\n      bool[] memory withdrawableArray = new bool[](indexes.length);\n      bool[] memory canceledArray = new bool[](indexes.length);\n      bool[] memory bettableArray = new bool[](indexes.length);\n\n      for (uint i = 0; i < indexes.length; i++) {\n        withdrawableArray[i] = matches[indexes[i]].withdrawable;\n        canceledArray[i] = matches[indexes[i]].canceled;\n        bettableArray[i] = matches[indexes[i]].bettable;\n      }\n\n      return (withdrawableArray, canceledArray, bettableArray);\n  }\n\n  function getMatchesResult(uint256[] indexes) \n    external \n    view \n    returns (\n      bytes32[],\n      uint[],\n      uint[]\n    ) {\n\n      bytes32[] memory winners = new bytes32[](indexes.length);\n      uint[] memory teamATotalBets = new uint[](indexes.length);\n      uint[] memory teamBTotalBets = new uint[](indexes.length);\n\n      for (uint i = 0; i < indexes.length; i++) {\n        winners[i] = matches[indexes[i]].winner;\n        teamATotalBets[i] = matches[indexes[i]].teamATotalBets;\n        teamBTotalBets[i] = matches[indexes[i]].teamBTotalBets;\n      }\n\n      return (winners, teamATotalBets, teamBTotalBets);\n  }\n\n}\n",
  "sourcePath": "/Users/liarolf/Documents/Ethereum/Ethlantis/contracts/MatchFactory.sol",
  "compiler": {
    "name": "solc",
    "version": "0.4.24+commit.e67f0147.Emscripten.clang"
  },
  "schemaVersion": "2.0.0",
  "updatedAt": "2018-06-10T09:27:50.155Z"
}