{
  "contractName": "MatchBetting",
  "abi": [
    {
      "constant": true,
      "inputs": [
        {
          "name": "indexes",
          "type": "uint256[]"
        }
      ],
      "name": "getMatchesStatus",
      "outputs": [
        {
          "name": "",
          "type": "bool[]"
        },
        {
          "name": "",
          "type": "bool[]"
        },
        {
          "name": "",
          "type": "bool[]"
        }
      ],
      "payable": false,
      "stateMutability": "view",
      "type": "function"
    },
    {
      "constant": true,
      "inputs": [
        {
          "name": "",
          "type": "uint256"
        }
      ],
      "name": "matchIdToId",
      "outputs": [
        {
          "name": "",
          "type": "uint256"
        }
      ],
      "payable": false,
      "stateMutability": "view",
      "type": "function"
    },
    {
      "constant": false,
      "inputs": [
        {
          "name": "_queryId",
          "type": "bytes32"
        },
        {
          "name": "_result",
          "type": "string"
        }
      ],
      "name": "__callback",
      "outputs": [],
      "payable": false,
      "stateMutability": "nonpayable",
      "type": "function"
    },
    {
      "constant": true,
      "inputs": [],
      "name": "maxBet",
      "outputs": [
        {
          "name": "",
          "type": "uint256"
        }
      ],
      "payable": false,
      "stateMutability": "view",
      "type": "function"
    },
    {
      "constant": false,
      "inputs": [
        {
          "name": "myid",
          "type": "bytes32"
        },
        {
          "name": "result",
          "type": "string"
        },
        {
          "name": "proof",
          "type": "bytes"
        }
      ],
      "name": "__callback",
      "outputs": [],
      "payable": false,
      "stateMutability": "nonpayable",
      "type": "function"
    },
    {
      "constant": true,
      "inputs": [
        {
          "name": "",
          "type": "uint256"
        }
      ],
      "name": "matches",
      "outputs": [
        {
          "name": "teamATotalBets",
          "type": "uint256"
        },
        {
          "name": "teamBTotalBets",
          "type": "uint256"
        },
        {
          "name": "startTime",
          "type": "uint256"
        },
        {
          "name": "matchId",
          "type": "uint256"
        },
        {
          "name": "id",
          "type": "uint32"
        },
        {
          "name": "teamA",
          "type": "bytes32"
        },
        {
          "name": "teamB",
          "type": "bytes32"
        },
        {
          "name": "gameType",
          "type": "bytes32"
        },
        {
          "name": "winner",
          "type": "bytes32"
        },
        {
          "name": "withdrawable",
          "type": "bool"
        },
        {
          "name": "canceled",
          "type": "bool"
        },
        {
          "name": "bettable",
          "type": "bool"
        }
      ],
      "payable": false,
      "stateMutability": "view",
      "type": "function"
    },
    {
      "constant": true,
      "inputs": [],
      "name": "MAX_FEE_PERCENTAGE",
      "outputs": [
        {
          "name": "",
          "type": "uint8"
        }
      ],
      "payable": false,
      "stateMutability": "view",
      "type": "function"
    },
    {
      "constant": true,
      "inputs": [
        {
          "name": "indexes",
          "type": "uint256[]"
        }
      ],
      "name": "getMatchesInfo",
      "outputs": [
        {
          "name": "",
          "type": "uint32[]"
        },
        {
          "name": "",
          "type": "uint256[]"
        },
        {
          "name": "",
          "type": "uint256[]"
        },
        {
          "name": "",
          "type": "bytes32[]"
        },
        {
          "name": "",
          "type": "bytes32[]"
        },
        {
          "name": "",
          "type": "bytes32[]"
        }
      ],
      "payable": false,
      "stateMutability": "view",
      "type": "function"
    },
    {
      "constant": true,
      "inputs": [],
      "name": "owner",
      "outputs": [
        {
          "name": "",
          "type": "address"
        }
      ],
      "payable": false,
      "stateMutability": "view",
      "type": "function"
    },
    {
      "constant": true,
      "inputs": [],
      "name": "minBet",
      "outputs": [
        {
          "name": "",
          "type": "uint256"
        }
      ],
      "payable": false,
      "stateMutability": "view",
      "type": "function"
    },
    {
      "constant": true,
      "inputs": [],
      "name": "feePercentage",
      "outputs": [
        {
          "name": "",
          "type": "uint8"
        }
      ],
      "payable": false,
      "stateMutability": "view",
      "type": "function"
    },
    {
      "constant": true,
      "inputs": [],
      "name": "getMatchesCount",
      "outputs": [
        {
          "name": "",
          "type": "uint256"
        }
      ],
      "payable": false,
      "stateMutability": "view",
      "type": "function"
    },
    {
      "constant": false,
      "inputs": [
        {
          "name": "_startTime",
          "type": "uint256"
        },
        {
          "name": "_matchId",
          "type": "uint256"
        },
        {
          "name": "_teamA",
          "type": "bytes32"
        },
        {
          "name": "_teamB",
          "type": "bytes32"
        },
        {
          "name": "_gameType",
          "type": "bytes32"
        }
      ],
      "name": "addMatch",
      "outputs": [],
      "payable": false,
      "stateMutability": "nonpayable",
      "type": "function"
    },
    {
      "constant": false,
      "inputs": [
        {
          "name": "_matchId",
          "type": "uint256"
        }
      ],
      "name": "cancelMatch",
      "outputs": [],
      "payable": false,
      "stateMutability": "nonpayable",
      "type": "function"
    },
    {
      "constant": true,
      "inputs": [
        {
          "name": "indexes",
          "type": "uint256[]"
        }
      ],
      "name": "getMatchesResult",
      "outputs": [
        {
          "name": "",
          "type": "bytes32[]"
        },
        {
          "name": "",
          "type": "uint256[]"
        },
        {
          "name": "",
          "type": "uint256[]"
        }
      ],
      "payable": false,
      "stateMutability": "view",
      "type": "function"
    },
    {
      "constant": false,
      "inputs": [
        {
          "name": "_matchId",
          "type": "string"
        },
        {
          "name": "_gameType",
          "type": "string"
        }
      ],
      "name": "getMatchWinner",
      "outputs": [],
      "payable": true,
      "stateMutability": "payable",
      "type": "function"
    },
    {
      "constant": false,
      "inputs": [
        {
          "name": "newOwner",
          "type": "address"
        }
      ],
      "name": "transferOwnership",
      "outputs": [],
      "payable": false,
      "stateMutability": "nonpayable",
      "type": "function"
    },
    {
      "payable": false,
      "stateMutability": "nonpayable",
      "type": "fallback"
    },
    {
      "anonymous": false,
      "inputs": [
        {
          "indexed": false,
          "name": "user",
          "type": "address"
        },
        {
          "indexed": false,
          "name": "amount",
          "type": "uint256"
        },
        {
          "indexed": false,
          "name": "teamChoice",
          "type": "bytes32"
        },
        {
          "indexed": false,
          "name": "teamATotalBets",
          "type": "uint256"
        },
        {
          "indexed": false,
          "name": "teamBTotalBets",
          "type": "uint256"
        }
      ],
      "name": "NewBet",
      "type": "event"
    },
    {
      "anonymous": false,
      "inputs": [
        {
          "indexed": false,
          "name": "user",
          "type": "address"
        },
        {
          "indexed": false,
          "name": "amount",
          "type": "uint256"
        },
        {
          "indexed": false,
          "name": "newTeam",
          "type": "bytes32"
        },
        {
          "indexed": false,
          "name": "teamATotalBets",
          "type": "uint256"
        },
        {
          "indexed": false,
          "name": "teamBTotalBets",
          "type": "uint256"
        }
      ],
      "name": "TeamChange",
      "type": "event"
    },
    {
      "anonymous": false,
      "inputs": [
        {
          "indexed": false,
          "name": "newFee",
          "type": "uint8"
        }
      ],
      "name": "NewFee",
      "type": "event"
    },
    {
      "anonymous": false,
      "inputs": [
        {
          "indexed": false,
          "name": "startTime",
          "type": "uint256"
        },
        {
          "indexed": false,
          "name": "id",
          "type": "uint32"
        },
        {
          "indexed": false,
          "name": "teamA",
          "type": "bytes32"
        },
        {
          "indexed": false,
          "name": "teamB",
          "type": "bytes32"
        }
      ],
      "name": "NewMatch",
      "type": "event"
    },
    {
      "anonymous": false,
      "inputs": [
        {
          "indexed": false,
          "name": "matchId",
          "type": "uint256"
        },
        {
          "indexed": false,
          "name": "withdrawable",
          "type": "bool"
        },
        {
          "indexed": false,
          "name": "canceled",
          "type": "bool"
        },
        {
          "indexed": false,
          "name": "bettable",
          "type": "bool"
        }
      ],
      "name": "CancelMatch",
      "type": "event"
    },
    {
      "anonymous": false,
      "inputs": [
        {
          "indexed": false,
          "name": "log",
          "type": "string"
        }
      ],
      "name": "LogInfo",
      "type": "event"
    },
    {
      "anonymous": false,
      "inputs": [
        {
          "indexed": true,
          "name": "previousOwner",
          "type": "address"
        },
        {
          "indexed": true,
          "name": "newOwner",
          "type": "address"
        }
      ],
      "name": "OwnershipTransferred",
      "type": "event"
    },
    {
      "constant": false,
      "inputs": [
        {
          "name": "_id",
          "type": "uint256"
        },
        {
          "name": "_teamChoice",
          "type": "bytes32"
        }
      ],
      "name": "bet",
      "outputs": [],
      "payable": true,
      "stateMutability": "payable",
      "type": "function"
    },
    {
      "constant": false,
      "inputs": [
        {
          "name": "_id",
          "type": "uint256"
        }
      ],
      "name": "swapTeam",
      "outputs": [],
      "payable": false,
      "stateMutability": "nonpayable",
      "type": "function"
    },
    {
      "constant": false,
      "inputs": [
        {
          "name": "_newFeePercentage",
          "type": "uint256"
        }
      ],
      "name": "setFee",
      "outputs": [],
      "payable": false,
      "stateMutability": "nonpayable",
      "type": "function"
    },
    {
      "constant": true,
      "inputs": [
        {
          "name": "_id",
          "type": "uint256"
        },
        {
          "name": "_teamChoice",
          "type": "bytes32"
        }
      ],
      "name": "getUserBet",
      "outputs": [
        {
          "name": "amount",
          "type": "uint256"
        }
      ],
      "payable": false,
      "stateMutability": "view",
      "type": "function"
    }
  ],
  "bytecode": "0x60806040526611c37937e080006009556801a055690d9db80000600a556003600b60006101000a81548160ff021916908360ff16021790555033600760006101000a81548173ffffffffffffffffffffffffffffffffffffffff021916908373ffffffffffffffffffffffffffffffffffffffff16021790555033600760006101000a81548173ffffffffffffffffffffffffffffffffffffffff021916908373ffffffffffffffffffffffffffffffffffffffff160217905550736f485c8bf6fc43ea212e93bbf8ce046c7f1cb4756000806101000a81548173ffffffffffffffffffffffffffffffffffffffff021916908373ffffffffffffffffffffffffffffffffffffffff160217905550613f9c8061011d6000396000f30060806040526004361061011d576000357c0100000000000000000000000000000000000000000000000000000000900463ffffffff1680630c6387011461012f578063123886261461024f57806327dc297e146102905780632e5b21681461030757806338bbfa50146103325780633aacd616146103ef5780634768d4ef1461043e578063558e44d3146105045780636141654b14610535578063662dac391461072d57806369fe0e2d1461075a5780638da5cb5b146107875780639619367d146107de578063a001ecdd14610809578063a9926de41461083a578063b4ed9af514610868578063b4f7a83714610893578063d02c8cdf146108f4578063e053fa6114610921578063e1bd43ab14610a41578063f2fde38b14610ae3575b34801561012957600080fd5b50600080fd5b34801561013b57600080fd5b50610168600480360381019080803590602001908201803590602001919091929391929390505050610b26565b60405180806020018060200180602001848103845287818151815260200191508051906020019060200280838360005b838110156101b3578082015181840152602081019050610198565b50505050905001848103835286818151815260200191508051906020019060200280838360005b838110156101f55780820151818401526020810190506101da565b50505050905001848103825285818151815260200191508051906020019060200280838360005b8381101561023757808201518184015260208101905061021c565b50505050905001965050505050505060405180910390f35b34801561025b57600080fd5b5061027a60048036038101908080359060200190929190505050610d2d565b6040518082815260200191505060405180910390f35b34801561029c57600080fd5b506103056004803603810190808035600019169060200190929190803590602001908201803590602001908080601f0160208091040260200160405190810160405280939291908181526020018383808284378201915050505050509192919290505050610d45565b005b34801561031357600080fd5b5061031c610e46565b6040518082815260200191505060405180910390f35b34801561033e57600080fd5b506103ed6004803603810190808035600019169060200190929190803590602001908201803590602001908080601f0160208091040260200160405190810160405280939291908181526020018383808284378201915050505050509192919290803590602001908201803590602001908080601f0160208091040260200160405190810160405280939291908181526020018383808284378201915050505050509192919290505050610e4c565b005b3480156103fb57600080fd5b50610428600480360381019080803590602001909291908035600019169060200190929190505050610e51565b6040518082815260200191505060405180910390f35b34801561044a57600080fd5b5061046960048036038101908080359060200190929190505050610f64565b604051808d81526020018c81526020018b81526020018a81526020018963ffffffff1663ffffffff16815260200188600019166000191681526020018760001916600019168152602001866000191660001916815260200185600019166000191681526020018415151515815260200183151515158152602001821515151581526020019c5050505050505050505050505060405180910390f35b34801561051057600080fd5b5061051961100a565b604051808260ff1660ff16815260200191505060405180910390f35b34801561054157600080fd5b5061056e60048036038101908080359060200190820180359060200191909192939192939050505061100f565b6040518080602001806020018060200180602001806020018060200187810387528d818151815260200191508051906020019060200280838360005b838110156105c55780820151818401526020810190506105aa565b5050505090500187810386528c818151815260200191508051906020019060200280838360005b838110156106075780820151818401526020810190506105ec565b5050505090500187810385528b818151815260200191508051906020019060200280838360005b8381101561064957808201518184015260208101905061062e565b5050505090500187810384528a818151815260200191508051906020019060200280838360005b8381101561068b578082015181840152602081019050610670565b50505050905001878103835289818151815260200191508051906020019060200280838360005b838110156106cd5780820151818401526020810190506106b2565b50505050905001878103825288818151815260200191508051906020019060200280838360005b8381101561070f5780820151818401526020810190506106f4565b505050509050019c5050505050505050505050505060405180910390f35b34801561073957600080fd5b50610758600480360381019080803590602001909291905050506113c3565b005b34801561076657600080fd5b5061078560048036038101908080359060200190929190505050611857565b005b34801561079357600080fd5b5061079c611932565b604051808273ffffffffffffffffffffffffffffffffffffffff1673ffffffffffffffffffffffffffffffffffffffff16815260200191505060405180910390f35b3480156107ea57600080fd5b506107f3611958565b6040518082815260200191505060405180910390f35b34801561081557600080fd5b5061081e61195e565b604051808260ff1660ff16815260200191505060405180910390f35b610866600480360381019080803590602001909291908035600019169060200190929190505050611971565b005b34801561087457600080fd5b5061087d611d63565b6040518082815260200191505060405180910390f35b34801561089f57600080fd5b506108f26004803603810190808035906020019092919080359060200190929190803560001916906020019092919080356000191690602001909291908035600019169060200190929190505050611d70565b005b34801561090057600080fd5b5061091f60048036038101908080359060200190929190505050612045565b005b34801561092d57600080fd5b5061095a6004803603810190808035906020019082018035906020019190919293919293905050506121c2565b60405180806020018060200180602001848103845287818151815260200191508051906020019060200280838360005b838110156109a557808201518184015260208101905061098a565b50505050905001848103835286818151815260200191508051906020019060200280838360005b838110156109e75780820151818401526020810190506109cc565b50505050905001848103825285818151815260200191508051906020019060200280838360005b83811015610a29578082015181840152602081019050610a0e565b50505050905001965050505050505060405180910390f35b610ae1600480360381019080803590602001908201803590602001908080601f0160208091040260200160405190810160405280939291908181526020018383808284378201915050505050509192919290803590602001908201803590602001908080601f016020809104026020016040519081016040528093929190818152602001838380828437820191505050505050919291929050505061239a565b005b348015610aef57600080fd5b50610b24600480360381019080803573ffffffffffffffffffffffffffffffffffffffff1690602001909291905050506126c6565b005b606080606080606080600088889050604051908082528060200260200182016040528015610b635781602001602082028038833980820191505090505b50935088889050604051908082528060200260200182016040528015610b985781602001602082028038833980820191505090505b50925088889050604051908082528060200260200182016040528015610bcd5781602001602082028038833980820191505090505b509150600090505b88889050811015610d195760058989838181101515610bf057fe5b90506020020135815481101515610c0357fe5b90600052602060002090600c020160090160009054906101000a900460ff168482815181101515610c3057fe5b906020019060200201901515908115158152505060058989838181101515610c5457fe5b90506020020135815481101515610c6757fe5b90600052602060002090600c020160090160019054906101000a900460ff168382815181101515610c9457fe5b906020019060200201901515908115158152505060058989838181101515610cb857fe5b90506020020135815481101515610ccb57fe5b90600052602060002090600c020160090160029054906101000a900460ff168282815181101515610cf857fe5b90602001906020020190151590811515815250508080600101915050610bd5565b838383965096509650505050509250925092565b60066020528060005260406000206000915090505481565b6000610d4f61281e565b73ffffffffffffffffffffffffffffffffffffffff163373ffffffffffffffffffffffffffffffffffffffff16141515610d8857600080fd5b60006008600085600019166000191681526020019081526020016000205414151515610db357600080fd5b60056000815481101515610dc357fe5b90600052602060002090600c0201905060018160090160006101000a81548160ff02191690831515021790555060008160090160026101000a81548160ff021916908315150217905550610e1682612b7c565b81600801816000191690555060086000846000191660001916815260200190815260200160002060009055505050565b600a5481565b505050565b600080600584815481101515610e6357fe5b90600052602060002090600c0201905082600019168160050154600019161480610e9857508260001916816006015460001916145b1515610ea357600080fd5b80600501546000191683600019161415610f005780600a0160003373ffffffffffffffffffffffffffffffffffffffff1673ffffffffffffffffffffffffffffffffffffffff168152602001908152602001600020549150610f5a565b80600601546000191683600019161415610f595780600b0160003373ffffffffffffffffffffffffffffffffffffffff1673ffffffffffffffffffffffffffffffffffffffff1681526020019081526020016000205491505b5b8191505092915050565b600581815481101515610f7357fe5b90600052602060002090600c02016000915090508060000154908060010154908060020154908060030154908060040160009054906101000a900463ffffffff16908060050154908060060154908060070154908060080154908060090160009054906101000a900460ff16908060090160019054906101000a900460ff16908060090160029054906101000a900460ff1690508c565b600681565b60608060608060608060608060608060608060008e8e90506040519080825280602002602001820160405280156110555781602001602082028038833980820191505090505b5096508e8e905060405190808252806020026020018201604052801561108a5781602001602082028038833980820191505090505b5095508e8e90506040519080825280602002602001820160405280156110bf5781602001602082028038833980820191505090505b5094508e8e90506040519080825280602002602001820160405280156110f45781602001602082028038833980820191505090505b5093508e8e90506040519080825280602002602001820160405280156111295781602001602082028038833980820191505090505b5092508e8e905060405190808252806020026020018201604052801561115e5781602001602082028038833980820191505090505b509150600090505b8e8e90508110156113a05760058f8f83818110151561118157fe5b9050602002013581548110151561119457fe5b90600052602060002090600c020160040160009054906101000a900463ffffffff1687828151811015156111c457fe5b9060200190602002019063ffffffff16908163ffffffff168152505060058f8f8381811015156111f057fe5b9050602002013581548110151561120357fe5b90600052602060002090600c020160020154868281518110151561122357fe5b906020019060200201818152505060058f8f83818110151561124157fe5b9050602002013581548110151561125457fe5b90600052602060002090600c020160030154858281518110151561127457fe5b906020019060200201818152505060058f8f83818110151561129257fe5b905060200201358154811015156112a557fe5b90600052602060002090600c02016005015484828151811015156112c557fe5b90602001906020020190600019169081600019168152505060058f8f8381811015156112ed57fe5b9050602002013581548110151561130057fe5b90600052602060002090600c020160060154838281518110151561132057fe5b90602001906020020190600019169081600019168152505060058f8f83818110151561134857fe5b9050602002013581548110151561135b57fe5b90600052602060002090600c020160070154828281518110151561137b57fe5b9060200190602002019060001916908160001916815250508080600101915050611166565b8686868686869c509c509c509c509c509c50505050505050509295509295509295565b60008060006005848154811015156113d757fe5b90600052602060002090600c020192508260090160029054906101000a900460ff16151561140457600080fd5b600083600a0160003373ffffffffffffffffffffffffffffffffffffffff1673ffffffffffffffffffffffffffffffffffffffff168152602001908152602001600020541480156114975750600083600b0160003373ffffffffffffffffffffffffffffffffffffffff1673ffffffffffffffffffffffffffffffffffffffff1681526020019081526020016000205414155b156115de5782600b0160003373ffffffffffffffffffffffffffffffffffffffff1673ffffffffffffffffffffffffffffffffffffffff1681526020019081526020016000205483600a0160003373ffffffffffffffffffffffffffffffffffffffff1673ffffffffffffffffffffffffffffffffffffffff168152602001908152602001600020819055508260050154905082600b0160003373ffffffffffffffffffffffffffffffffffffffff1673ffffffffffffffffffffffffffffffffffffffff168152602001908152602001600020549150818360010160008282540392505081905550818360000160008282540192505081905550600083600b0160003373ffffffffffffffffffffffffffffffffffffffff1673ffffffffffffffffffffffffffffffffffffffff168152602001908152602001600020819055506117be565b600083600b0160003373ffffffffffffffffffffffffffffffffffffffff1673ffffffffffffffffffffffffffffffffffffffff168152602001908152602001600020541480156116715750600083600a0160003373ffffffffffffffffffffffffffffffffffffffff1673ffffffffffffffffffffffffffffffffffffffff1681526020019081526020016000205414155b156117b85782600a0160003373ffffffffffffffffffffffffffffffffffffffff1673ffffffffffffffffffffffffffffffffffffffff1681526020019081526020016000205483600b0160003373ffffffffffffffffffffffffffffffffffffffff1673ffffffffffffffffffffffffffffffffffffffff168152602001908152602001600020819055508260060154905082600a0160003373ffffffffffffffffffffffffffffffffffffffff1673ffffffffffffffffffffffffffffffffffffffff168152602001908152602001600020549150818360000160008282540392505081905550818360010160008282540192505081905550600083600a0160003373ffffffffffffffffffffffffffffffffffffffff1673ffffffffffffffffffffffffffffffffffffffff168152602001908152602001600020819055506117bd565b600080fd5b5b7fd9c769d5fb1cc02fe460f80fa66b383376f042360cb1096e467f28f06e1ce27f33838386600001548760010154604051808673ffffffffffffffffffffffffffffffffffffffff1673ffffffffffffffffffffffffffffffffffffffff16815260200185815260200184600019166000191681526020018381526020018281526020019550505050505060405180910390a150505050565b600760009054906101000a900473ffffffffffffffffffffffffffffffffffffffff1673ffffffffffffffffffffffffffffffffffffffff163373ffffffffffffffffffffffffffffffffffffffff161415156118b357600080fd5b8060ff16811415156118c457600080fd5b600660ff1681111515156118d757600080fd5b80600b60006101000a81548160ff021916908360ff1602179055507f7449f3d17e20ff81ca3bf49c50df04b4c2848e80067f6430447a80124785a40181604051808260ff1660ff16815260200191505060405180910390a150565b600760009054906101000a900473ffffffffffffffffffffffffffffffffffffffff1681565b60095481565b600b60009054906101000a900460ff1681565b60008060058481548110151561198357fe5b90600052602060002090600c020191506001340290508160090160029054906101000a900460ff1615156119b657600080fd5b826000191682600501546000191614806119db57508260001916826006015460001916145b15156119e657600080fd5b8260001916826005015460001916148015611a425750600082600b0160003373ffffffffffffffffffffffffffffffffffffffff1673ffffffffffffffffffffffffffffffffffffffff16815260200190815260200160002054145b15611b5557600a548183600a0160003373ffffffffffffffffffffffffffffffffffffffff1673ffffffffffffffffffffffffffffffffffffffff168152602001908152602001600020540111151515611a9b57600080fd5b6009548183600a0160003373ffffffffffffffffffffffffffffffffffffffff1673ffffffffffffffffffffffffffffffffffffffff168152602001908152602001600020540110151515611aef57600080fd5b8082600a0160003373ffffffffffffffffffffffffffffffffffffffff1673ffffffffffffffffffffffffffffffffffffffff16815260200190815260200160002060008282540192505081905550808260000160008282540192505081905550611cca565b8260001916826006015460001916148015611bb15750600082600a0160003373ffffffffffffffffffffffffffffffffffffffff1673ffffffffffffffffffffffffffffffffffffffff16815260200190815260200160002054145b15611cc457600a548183600b0160003373ffffffffffffffffffffffffffffffffffffffff1673ffffffffffffffffffffffffffffffffffffffff168152602001908152602001600020540111151515611c0a57600080fd5b6009548183600a0160003373ffffffffffffffffffffffffffffffffffffffff1673ffffffffffffffffffffffffffffffffffffffff168152602001908152602001600020540110151515611c5e57600080fd5b8082600b0160003373ffffffffffffffffffffffffffffffffffffffff1673ffffffffffffffffffffffffffffffffffffffff16815260200190815260200160002060008282540192505081905550808260010160008282540192505081905550611cc9565b600080fd5b5b7f7540b832fcde2f4654848b1160a8ccb161316516464cf8e43c15e8271fd20bc633828585600001548660010154604051808673ffffffffffffffffffffffffffffffffffffffff1673ffffffffffffffffffffffffffffffffffffffff16815260200185815260200184600019166000191681526020018381526020018281526020019550505050505060405180910390a150505050565b6000600580549050905090565b6000600760009054906101000a900473ffffffffffffffffffffffffffffffffffffffff1673ffffffffffffffffffffffffffffffffffffffff163373ffffffffffffffffffffffffffffffffffffffff16141515611dce57600080fd5b858042101515611ddd57600080fd5b8563ffffffff1686141515611df157600080fd5b60006006600088815260200190815260200160002054141515611e1357600080fd5b600160056101806040519081016040528060008152602001600081526020018a815260200189815260200160058054905063ffffffff16815260200188600019168152602001876000191681526020018660001916815260200160008019168152602001600015158152602001600015158152602001600115158152509080600181540180825580915050906001820390600052602060002090600c0201600090919290919091506000820151816000015560208201518160010155604082015181600201556060820151816003015560808201518160040160006101000a81548163ffffffff021916908363ffffffff16021790555060a0820151816005019060001916905560c0820151816006019060001916905560e0820151816007019060001916905561010082015181600801906000191690556101208201518160090160006101000a81548160ff0219169083151502179055506101408201518160090160016101000a81548160ff0219169083151502179055506101608201518160090160026101000a81548160ff02191690831515021790555050500391508163ffffffff1660066000888152602001908152602001600020819055507f74d6513caa0390bd234d794e20734fb537223d7b91243ea488cedc1806900b6c87838787604051808581526020018463ffffffff1663ffffffff1681526020018360001916600019168152602001826000191660001916815260200194505050505060405180910390a150505050505050565b6000600760009054906101000a900473ffffffffffffffffffffffffffffffffffffffff1673ffffffffffffffffffffffffffffffffffffffff163373ffffffffffffffffffffffffffffffffffffffff161415156120a357600080fd5b600560066000848152602001908152602001600020548154811015156120c557fe5b90600052602060002090600c0201905060018160090160016101000a81548160ff02191690831515021790555060018160090160006101000a81548160ff02191690831515021790555060008160090160026101000a81548160ff0219169083151502179055507f197768be5c070b44a8b44374d3a81d98f204d017039f19e5781d3f309d19bcb581600301548260090160009054906101000a900460ff168360090160019054906101000a900460ff168460090160029054906101000a900460ff166040518085815260200184151515158152602001831515151581526020018215151515815260200194505050505060405180910390a15050565b6060806060806060806000888890506040519080825280602002602001820160405280156121ff5781602001602082028038833980820191505090505b509350888890506040519080825280602002602001820160405280156122345781602001602082028038833980820191505090505b509250888890506040519080825280602002602001820160405280156122695781602001602082028038833980820191505090505b509150600090505b88889050811015612386576005898983818110151561228c57fe5b9050602002013581548110151561229f57fe5b90600052602060002090600c02016008015484828151811015156122bf57fe5b906020019060200201906000191690816000191681525050600589898381811015156122e757fe5b905060200201358154811015156122fa57fe5b90600052602060002090600c020160000154838281518110151561231a57fe5b90602001906020020181815250506005898983818110151561233857fe5b9050602002013581548110151561234b57fe5b90600052602060002090600c020160010154828281518110151561236b57fe5b90602001906020020181815250508080600101915050612271565b838383965096509650505050509250925092565b60608060003073ffffffffffffffffffffffffffffffffffffffff16316123f56040805190810160405280600381526020017f55524c0000000000000000000000000000000000000000000000000000000000815250612ba7565b111561248e577ffee95ecae0c8f7f0743ec0ad254c78ab75e5ecca9f1ddcd9f11f9a98124b96bc6040518080602001828103825260238152602001807f4e6f7420656e6f7567682066756e647320666f72206f7261636c697a6520717581526020017f657279000000000000000000000000000000000000000000000000000000000081525060400191505060405180910390a16126bf565b7ffee95ecae0c8f7f0743ec0ad254c78ab75e5ecca9f1ddcd9f11f9a98124b96bc6040518080602001828103825260288152602001807f4f7261636c697a65207175657279207761732073656e742c20636865636b696e81526020017f6720616e7377657200000000000000000000000000000000000000000000000081525060400191505060405180910390a161257461255d6040805190810160405280600581526020017f444f544132000000000000000000000000000000000000000000000000000000815250612f77565b61256686612f77565b612fa590919063ffffffff16565b156126be576125f861258586612f77565b6125ea606060405190810160405280603581526020017f6a736f6e2868747470733a2f2f6574686c616e7469732d6272696467652e686581526020017f726f6b756170702e636f6d2f6170692f646f74612f0000000000000000000000815250612f77565b612fbb90919063ffffffff16565b925061265261263b6040805190810160405280600d81526020017f292e6d6174636857696e6e657200000000000000000000000000000000000000815250612f77565b61264485612f77565b612fbb90919063ffffffff16565b91506126936040805190810160405280600381526020017f55524c00000000000000000000000000000000000000000000000000000000008152508361303d565b905061269e856135df565b600860008360001916600019168152602001908152602001600020819055505b5b5050505050565b600760009054906101000a900473ffffffffffffffffffffffffffffffffffffffff1673ffffffffffffffffffffffffffffffffffffffff163373ffffffffffffffffffffffffffffffffffffffff1614151561272257600080fd5b600073ffffffffffffffffffffffffffffffffffffffff168173ffffffffffffffffffffffffffffffffffffffff161415151561275e57600080fd5b8073ffffffffffffffffffffffffffffffffffffffff16600760009054906101000a900473ffffffffffffffffffffffffffffffffffffffff1673ffffffffffffffffffffffffffffffffffffffff167f8be0079c531659141344cd1fd0a4f28419497f9722a3daafe3b4186f6b6457e060405160405180910390a380600760006101000a81548173ffffffffffffffffffffffffffffffffffffffff021916908373ffffffffffffffffffffffffffffffffffffffff16021790555050565b6000806000809054906101000a900473ffffffffffffffffffffffffffffffffffffffff1673ffffffffffffffffffffffffffffffffffffffff16148061288e5750600061288c6000809054906101000a900473ffffffffffffffffffffffffffffffffffffffff166135f3565b145b1561289f5761289d60006135fe565b505b6000809054906101000a900473ffffffffffffffffffffffffffffffffffffffff1673ffffffffffffffffffffffffffffffffffffffff166338cc48316040518163ffffffff167c0100000000000000000000000000000000000000000000000000000000028152600401602060405180830381600087803b15801561292457600080fd5b505af1158015612938573d6000803e3d6000fd5b505050506040513d602081101561294e57600080fd5b810190808051906020019092919050505073ffffffffffffffffffffffffffffffffffffffff16600160009054906101000a900473ffffffffffffffffffffffffffffffffffffffff1673ffffffffffffffffffffffffffffffffffffffff16141515612ab6576000809054906101000a900473ffffffffffffffffffffffffffffffffffffffff1673ffffffffffffffffffffffffffffffffffffffff166338cc48316040518163ffffffff167c0100000000000000000000000000000000000000000000000000000000028152600401602060405180830381600087803b158015612a3a57600080fd5b505af1158015612a4e573d6000803e3d6000fd5b505050506040513d6020811015612a6457600080fd5b8101908080519060200190929190505050600160006101000a81548173ffffffffffffffffffffffffffffffffffffffff021916908373ffffffffffffffffffffffffffffffffffffffff1602179055505b600160009054906101000a900473ffffffffffffffffffffffffffffffffffffffff1673ffffffffffffffffffffffffffffffffffffffff1663c281d19e6040518163ffffffff167c0100000000000000000000000000000000000000000000000000000000028152600401602060405180830381600087803b158015612b3c57600080fd5b505af1158015612b50573d6000803e3d6000fd5b505050506040513d6020811015612b6657600080fd5b8101908080519060200190929190505050905090565b60006060829050600081511415612b995760006001029150612ba1565b602083015191505b50919050565b6000806000809054906101000a900473ffffffffffffffffffffffffffffffffffffffff1673ffffffffffffffffffffffffffffffffffffffff161480612c1757506000612c156000809054906101000a900473ffffffffffffffffffffffffffffffffffffffff166135f3565b145b15612c2857612c2660006135fe565b505b6000809054906101000a900473ffffffffffffffffffffffffffffffffffffffff1673ffffffffffffffffffffffffffffffffffffffff166338cc48316040518163ffffffff167c0100000000000000000000000000000000000000000000000000000000028152600401602060405180830381600087803b158015612cad57600080fd5b505af1158015612cc1573d6000803e3d6000fd5b505050506040513d6020811015612cd757600080fd5b810190808051906020019092919050505073ffffffffffffffffffffffffffffffffffffffff16600160009054906101000a900473ffffffffffffffffffffffffffffffffffffffff1673ffffffffffffffffffffffffffffffffffffffff16141515612e3f576000809054906101000a900473ffffffffffffffffffffffffffffffffffffffff1673ffffffffffffffffffffffffffffffffffffffff166338cc48316040518163ffffffff167c0100000000000000000000000000000000000000000000000000000000028152600401602060405180830381600087803b158015612dc357600080fd5b505af1158015612dd7573d6000803e3d6000fd5b505050506040513d6020811015612ded57600080fd5b8101908080519060200190929190505050600160006101000a81548173ffffffffffffffffffffffffffffffffffffffff021916908373ffffffffffffffffffffffffffffffffffffffff1602179055505b600160009054906101000a900473ffffffffffffffffffffffffffffffffffffffff1673ffffffffffffffffffffffffffffffffffffffff1663524f3889836040518263ffffffff167c01000000000000000000000000000000000000000000000000000000000281526004018080602001828103825283818151815260200191508051906020019080838360005b83811015612ee9578082015181840152602081019050612ece565b50505050905090810190601f168015612f165780820380516001836020036101000a031916815260200191505b5092505050602060405180830381600087803b158015612f3557600080fd5b505af1158015612f49573d6000803e3d6000fd5b505050506040513d6020811015612f5f57600080fd5b81019080805190602001909291905050509050919050565b612f7f613eb1565b600060208301905060408051908101604052808451815260200182815250915050919050565b600080612fb2848461360f565b14905092915050565b606080600083600001518560000151016040519080825280601f01601f191660200182016040528015612ffd5781602001602082028038833980820191505090505b50915060208201905061301981866020015187600001516136c9565b61303285600001518201856020015186600001516136c9565b819250505092915050565b60008060008060009054906101000a900473ffffffffffffffffffffffffffffffffffffffff1673ffffffffffffffffffffffffffffffffffffffff1614806130af575060006130ad6000809054906101000a900473ffffffffffffffffffffffffffffffffffffffff166135f3565b145b156130c0576130be60006135fe565b505b6000809054906101000a900473ffffffffffffffffffffffffffffffffffffffff1673ffffffffffffffffffffffffffffffffffffffff166338cc48316040518163ffffffff167c0100000000000000000000000000000000000000000000000000000000028152600401602060405180830381600087803b15801561314557600080fd5b505af1158015613159573d6000803e3d6000fd5b505050506040513d602081101561316f57600080fd5b810190808051906020019092919050505073ffffffffffffffffffffffffffffffffffffffff16600160009054906101000a900473ffffffffffffffffffffffffffffffffffffffff1673ffffffffffffffffffffffffffffffffffffffff161415156132d7576000809054906101000a900473ffffffffffffffffffffffffffffffffffffffff1673ffffffffffffffffffffffffffffffffffffffff166338cc48316040518163ffffffff167c0100000000000000000000000000000000000000000000000000000000028152600401602060405180830381600087803b15801561325b57600080fd5b505af115801561326f573d6000803e3d6000fd5b505050506040513d602081101561328557600080fd5b8101908080519060200190929190505050600160006101000a81548173ffffffffffffffffffffffffffffffffffffffff021916908373ffffffffffffffffffffffffffffffffffffffff1602179055505b600160009054906101000a900473ffffffffffffffffffffffffffffffffffffffff1673ffffffffffffffffffffffffffffffffffffffff1663524f3889856040518263ffffffff167c01000000000000000000000000000000000000000000000000000000000281526004018080602001828103825283818151815260200191508051906020019080838360005b83811015613381578082015181840152602081019050613366565b50505050905090810190601f1680156133ae5780820380516001836020036101000a031916815260200191505b5092505050602060405180830381600087803b1580156133cd57600080fd5b505af11580156133e1573d6000803e3d6000fd5b505050506040513d60208110156133f757600080fd5b8101908080519060200190929190505050905062030d403a02670de0b6b3a76400000181111561342d57600060010291506135d8565b600160009054906101000a900473ffffffffffffffffffffffffffffffffffffffff1673ffffffffffffffffffffffffffffffffffffffff1663adf59f9982600087876040518563ffffffff167c0100000000000000000000000000000000000000000000000000000000028152600401808481526020018060200180602001838103835285818151815260200191508051906020019080838360005b838110156134e55780820151818401526020810190506134ca565b50505050905090810190601f1680156135125780820380516001836020036101000a031916815260200191505b50838103825284818151815260200191508051906020019080838360005b8381101561354b578082015181840152602081019050613530565b50505050905090810190601f1680156135785780820380516001836020036101000a031916815260200191505b50955050505050506020604051808303818588803b15801561359957600080fd5b505af11580156135ad573d6000803e3d6000fd5b50505050506040513d60208110156135c457600080fd5b810190808051906020019092919050505091505b5092915050565b60006135ec826000613714565b9050919050565b6000813b9050919050565b6000613608613a08565b9050919050565b60008060008060008060008060008a6000015197508a600001518a60000151101561363c57896000015197505b8a60200151965089602001519550600094505b878510156136ad578651935085519250828414151561369657600185896020030160080260020a03199150818316828516039050600081141515613695578098506136bb565b5b60208701965060208601955060208501945061364f565b89600001518b600001510398505b505050505050505092915050565b60005b6020821015156136f157825184526020840193506020830192506020820391506136cc565b6001826020036101000a0390508019835116818551168181178652505050505050565b6000606060008060008693506000925060009150600090505b83518110156139e95760307f010000000000000000000000000000000000000000000000000000000000000002848281518110151561376857fe5b9060200101517f010000000000000000000000000000000000000000000000000000000000000090047f0100000000000000000000000000000000000000000000000000000000000000027effffffffffffffffffffffffffffffffffffffffffffffffffffffffffffff191610158015613880575060397f010000000000000000000000000000000000000000000000000000000000000002848281518110151561381057fe5b9060200101517f010000000000000000000000000000000000000000000000000000000000000090047f0100000000000000000000000000000000000000000000000000000000000000027effffffffffffffffffffffffffffffffffffffffffffffffffffffffffffff191611155b156139315781156138a3576000861415613899576139e9565b8580600190039650505b600a83029250603084828151811015156138b957fe5b9060200101517f010000000000000000000000000000000000000000000000000000000000000090047f0100000000000000000000000000000000000000000000000000000000000000027f0100000000000000000000000000000000000000000000000000000000000000900403830192506139dc565b602e7f010000000000000000000000000000000000000000000000000000000000000002848281518110151561396357fe5b9060200101517f010000000000000000000000000000000000000000000000000000000000000090047f0100000000000000000000000000000000000000000000000000000000000000027effffffffffffffffffffffffffffffffffffffffffffffffffffffffffffff191614156139db57600191505b5b808060010191505061372d565b60008611156139fb5785600a0a830292505b8294505050505092915050565b600080613a28731d3b2638a7cc9f2cb3d298a3da7a90b67e5506ed6135f3565b1115613ac957731d3b2638a7cc9f2cb3d298a3da7a90b67e5506ed6000806101000a81548173ffffffffffffffffffffffffffffffffffffffff021916908373ffffffffffffffffffffffffffffffffffffffff160217905550613ac06040805190810160405280600b81526020017f6574685f6d61696e6e6574000000000000000000000000000000000000000000815250613e97565b60019050613e94565b6000613ae873c03a2615d5efaf5f49f60b7bb6583eaec212fdf16135f3565b1115613b895773c03a2615d5efaf5f49f60b7bb6583eaec212fdf16000806101000a81548173ffffffffffffffffffffffffffffffffffffffff021916908373ffffffffffffffffffffffffffffffffffffffff160217905550613b806040805190810160405280600c81526020017f6574685f726f707374656e330000000000000000000000000000000000000000815250613e97565b60019050613e94565b6000613ba873b7a07bcf2ba2f2703b24c0691b5278999c59ac7e6135f3565b1115613c495773b7a07bcf2ba2f2703b24c0691b5278999c59ac7e6000806101000a81548173ffffffffffffffffffffffffffffffffffffffff021916908373ffffffffffffffffffffffffffffffffffffffff160217905550613c406040805190810160405280600981526020017f6574685f6b6f76616e0000000000000000000000000000000000000000000000815250613e97565b60019050613e94565b6000613c6873146500cfd35b22e4a392fe0adc06de1a1368ed486135f3565b1115613d095773146500cfd35b22e4a392fe0adc06de1a1368ed486000806101000a81548173ffffffffffffffffffffffffffffffffffffffff021916908373ffffffffffffffffffffffffffffffffffffffff160217905550613d006040805190810160405280600b81526020017f6574685f72696e6b656279000000000000000000000000000000000000000000815250613e97565b60019050613e94565b6000613d28736f485c8bf6fc43ea212e93bbf8ce046c7f1cb4756135f3565b1115613d8b57736f485c8bf6fc43ea212e93bbf8ce046c7f1cb4756000806101000a81548173ffffffffffffffffffffffffffffffffffffffff021916908373ffffffffffffffffffffffffffffffffffffffff16021790555060019050613e94565b6000613daa7320e12a1f859b3feae5fb2a0a32c18f5a65555bbf6135f3565b1115613e0d577320e12a1f859b3feae5fb2a0a32c18f5a65555bbf6000806101000a81548173ffffffffffffffffffffffffffffffffffffffff021916908373ffffffffffffffffffffffffffffffffffffffff16021790555060019050613e94565b6000613e2c7351efaf4c8b3c9afbd5ab9f4bbc82784ab6ef8faa6135f3565b1115613e8f577351efaf4c8b3c9afbd5ab9f4bbc82784ab6ef8faa6000806101000a81548173ffffffffffffffffffffffffffffffffffffffff021916908373ffffffffffffffffffffffffffffffffffffffff16021790555060019050613e94565b600090505b90565b8060029080519060200190613ead929190613ecb565b5050565b604080519081016040528060008152602001600081525090565b828054600181600116156101000203166002900490600052602060002090601f016020900481019282601f10613f0c57805160ff1916838001178555613f3a565b82800160010185558215613f3a579182015b82811115613f39578251825591602001919060010190613f1e565b5b509050613f479190613f4b565b5090565b613f6d91905b80821115613f69576000816000905550600101613f51565b5090565b905600a165627a7a72305820ae8819e10292386c1b56802266b358d833cc35a790762a89cb2696b371946df20029",
  "source": "pragma solidity ^0.4.24;\n\nimport \"./MatchFactory.sol\";\n\ncontract MatchBetting is MatchFactory {\n\n  event NewBet(address user, uint amount, bytes32 teamChoice, uint teamATotalBets, uint teamBTotalBets);\n  event TeamChange(address user, uint amount, bytes32 newTeam, uint teamATotalBets, uint teamBTotalBets);\n  event NewFee(uint8 newFee);\n\n  uint public minBet = 5000000000000000 wei;\n  uint public maxBet = 30000000000000000000 wei;\n  \n  uint8 public constant MAX_FEE_PERCENTAGE = 6;\n  uint8 public feePercentage = 3;\n\n  function bet(uint _id, bytes32 _teamChoice) external payable {\n    Match storage m = matches[_id];\n    uint amount = msg.value * 1 wei;\n    \n    require(m.bettable);\n    require(m.teamA == _teamChoice || m.teamB == _teamChoice);\n\n    if (m.teamA == _teamChoice && m.teamBBets[msg.sender] == 0) {\n      require(m.teamABets[msg.sender] + amount <= maxBet);\n      require(m.teamABets[msg.sender] + amount >= minBet);  \n      m.teamABets[msg.sender] += amount;\n      m.teamATotalBets += amount;\n    } else if (m.teamB == _teamChoice && m.teamABets[msg.sender] == 0) {\n      require(m.teamBBets[msg.sender] + amount <= maxBet);\n      require(m.teamABets[msg.sender] + amount >= minBet);\n      m.teamBBets[msg.sender] += amount;\n      m.teamBTotalBets += amount;\n    } else { \n      revert();\n    }\n\n    emit NewBet(msg.sender, amount, _teamChoice, m.teamATotalBets, m.teamBTotalBets);\n  }\n\n  function swapTeam(uint _id) external {\n    Match storage m = matches[_id];\n    uint betPlaced;\n    bytes32 teamChoice;\n\n    require(m.bettable);\n\n    if (m.teamABets[msg.sender] == 0 && m.teamBBets[msg.sender] != 0) {\n      m.teamABets[msg.sender] = m.teamBBets[msg.sender];\n      teamChoice = m.teamA;\n      betPlaced = m.teamBBets[msg.sender];\n      m.teamBTotalBets -= betPlaced;\n      m.teamATotalBets += betPlaced;      \n      m.teamBBets[msg.sender] = 0;\n    } else if (m.teamBBets[msg.sender] == 0 && m.teamABets[msg.sender] != 0) {\n      m.teamBBets[msg.sender] = m.teamABets[msg.sender];\n      teamChoice = m.teamB;\n      betPlaced = m.teamABets[msg.sender];\n      m.teamATotalBets -= betPlaced;\n      m.teamBTotalBets += betPlaced;\n      m.teamABets[msg.sender] = 0;\n    } else {\n      revert();\n    }\n\n    emit TeamChange(msg.sender, betPlaced, teamChoice, m.teamATotalBets, m.teamBTotalBets);\n  }\n\n  function setFee(uint256 _newFeePercentage) external onlyOwner {\n    require(_newFeePercentage == uint8(_newFeePercentage));\n    require(_newFeePercentage <= MAX_FEE_PERCENTAGE);\n    feePercentage = uint8(_newFeePercentage);\n    emit NewFee(uint8(_newFeePercentage));\n  }\n\n  function getUserBet(uint _id, bytes32 _teamChoice)\n    public \n    view \n    returns (\n      uint amount\n  ) {\n    Match storage m = matches[_id];\n    \n    require(m.teamA == _teamChoice || m.teamB == _teamChoice);\n    \n    if (_teamChoice == m.teamA) {\n      amount = m.teamABets[msg.sender];\n    } else if (_teamChoice == m.teamB) {\n      amount = m.teamBBets[msg.sender];\n    }\n\n    return amount;\n  }\n}",
  "sourcePath": "/Users/liarolf/Documents/Ethereum/Ethlantis/contracts/MatchBetting.sol",
  "compiler": {
    "name": "solc",
    "version": "0.4.24+commit.e67f0147.Emscripten.clang"
  },
  "schemaVersion": "2.0.0",
  "updatedAt": "2018-07-22T07:39:20.753Z"
}