{
  "contractName": "MatchBetting",
  "abi": [
    {
      "constant": true,
      "inputs": [
        {
          "name": "indexes",
          "type": "uint256[]"
        }
      ],
      "name": "getMatchesStatus",
      "outputs": [
        {
          "name": "",
          "type": "bool[]"
        },
        {
          "name": "",
          "type": "bool[]"
        },
        {
          "name": "",
          "type": "bool[]"
        }
      ],
      "payable": false,
      "stateMutability": "view",
      "type": "function"
    },
    {
      "constant": true,
      "inputs": [
        {
          "name": "",
          "type": "bytes32"
        }
      ],
      "name": "hashToMatchId",
      "outputs": [
        {
          "name": "",
          "type": "uint32"
        }
      ],
      "payable": false,
      "stateMutability": "view",
      "type": "function"
    },
    {
      "constant": true,
      "inputs": [],
      "name": "maxBet",
      "outputs": [
        {
          "name": "",
          "type": "uint256"
        }
      ],
      "payable": false,
      "stateMutability": "view",
      "type": "function"
    },
    {
      "constant": true,
      "inputs": [
        {
          "name": "",
          "type": "uint256"
        }
      ],
      "name": "matches",
      "outputs": [
        {
          "name": "teamATotalBets",
          "type": "uint256"
        },
        {
          "name": "teamBTotalBets",
          "type": "uint256"
        },
        {
          "name": "startTime",
          "type": "uint64"
        },
        {
          "name": "matchId",
          "type": "uint32"
        },
        {
          "name": "id",
          "type": "uint32"
        },
        {
          "name": "teamA",
          "type": "bytes32"
        },
        {
          "name": "teamB",
          "type": "bytes32"
        },
        {
          "name": "gameType",
          "type": "bytes32"
        },
        {
          "name": "winner",
          "type": "bytes32"
        },
        {
          "name": "withdrawable",
          "type": "bool"
        },
        {
          "name": "canceled",
          "type": "bool"
        },
        {
          "name": "bettable",
          "type": "bool"
        }
      ],
      "payable": false,
      "stateMutability": "view",
      "type": "function"
    },
    {
      "constant": true,
      "inputs": [],
      "name": "MAX_FEE_PERCENTAGE",
      "outputs": [
        {
          "name": "",
          "type": "uint8"
        }
      ],
      "payable": false,
      "stateMutability": "view",
      "type": "function"
    },
    {
      "constant": true,
      "inputs": [
        {
          "name": "indexes",
          "type": "uint256[]"
        }
      ],
      "name": "getMatchesInfo",
      "outputs": [
        {
          "name": "",
          "type": "uint32[]"
        },
        {
          "name": "",
          "type": "uint64[]"
        },
        {
          "name": "",
          "type": "uint32[]"
        },
        {
          "name": "",
          "type": "bytes32[]"
        },
        {
          "name": "",
          "type": "bytes32[]"
        },
        {
          "name": "",
          "type": "bytes32[]"
        }
      ],
      "payable": false,
      "stateMutability": "view",
      "type": "function"
    },
    {
      "constant": true,
      "inputs": [],
      "name": "owner",
      "outputs": [
        {
          "name": "",
          "type": "address"
        }
      ],
      "payable": false,
      "stateMutability": "view",
      "type": "function"
    },
    {
      "constant": true,
      "inputs": [],
      "name": "minBet",
      "outputs": [
        {
          "name": "",
          "type": "uint256"
        }
      ],
      "payable": false,
      "stateMutability": "view",
      "type": "function"
    },
    {
      "constant": false,
      "inputs": [
        {
          "name": "_startTime",
          "type": "uint256"
        },
        {
          "name": "_matchId",
          "type": "uint256"
        },
        {
          "name": "_teamA",
          "type": "bytes32"
        },
        {
          "name": "_teamB",
          "type": "bytes32"
        },
        {
          "name": "_gameType",
          "type": "bytes32"
        },
        {
          "name": "_matchHash",
          "type": "bytes32"
        }
      ],
      "name": "addMatch",
      "outputs": [],
      "payable": false,
      "stateMutability": "nonpayable",
      "type": "function"
    },
    {
      "constant": true,
      "inputs": [],
      "name": "feePercentage",
      "outputs": [
        {
          "name": "",
          "type": "uint8"
        }
      ],
      "payable": false,
      "stateMutability": "view",
      "type": "function"
    },
    {
      "constant": true,
      "inputs": [],
      "name": "getMatchesCount",
      "outputs": [
        {
          "name": "",
          "type": "uint256"
        }
      ],
      "payable": false,
      "stateMutability": "view",
      "type": "function"
    },
    {
      "constant": false,
      "inputs": [
        {
          "name": "_matchHash",
          "type": "bytes32"
        }
      ],
      "name": "cancelMatch",
      "outputs": [],
      "payable": false,
      "stateMutability": "nonpayable",
      "type": "function"
    },
    {
      "constant": true,
      "inputs": [
        {
          "name": "indexes",
          "type": "uint256[]"
        }
      ],
      "name": "getMatchesResult",
      "outputs": [
        {
          "name": "",
          "type": "bytes32[]"
        },
        {
          "name": "",
          "type": "uint256[]"
        },
        {
          "name": "",
          "type": "uint256[]"
        }
      ],
      "payable": false,
      "stateMutability": "view",
      "type": "function"
    },
    {
      "constant": false,
      "inputs": [
        {
          "name": "newOwner",
          "type": "address"
        }
      ],
      "name": "transferOwnership",
      "outputs": [],
      "payable": false,
      "stateMutability": "nonpayable",
      "type": "function"
    },
    {
      "anonymous": false,
      "inputs": [
        {
          "indexed": false,
          "name": "user",
          "type": "address"
        },
        {
          "indexed": false,
          "name": "amount",
          "type": "uint256"
        },
        {
          "indexed": false,
          "name": "teamChoice",
          "type": "bytes32"
        },
        {
          "indexed": false,
          "name": "teamATotalBets",
          "type": "uint256"
        },
        {
          "indexed": false,
          "name": "teamBTotalBets",
          "type": "uint256"
        }
      ],
      "name": "NewBet",
      "type": "event"
    },
    {
      "anonymous": false,
      "inputs": [
        {
          "indexed": false,
          "name": "user",
          "type": "address"
        },
        {
          "indexed": false,
          "name": "amount",
          "type": "uint256"
        },
        {
          "indexed": false,
          "name": "newTeam",
          "type": "bytes32"
        },
        {
          "indexed": false,
          "name": "teamATotalBets",
          "type": "uint256"
        },
        {
          "indexed": false,
          "name": "teamBTotalBets",
          "type": "uint256"
        }
      ],
      "name": "TeamChange",
      "type": "event"
    },
    {
      "anonymous": false,
      "inputs": [
        {
          "indexed": false,
          "name": "newFee",
          "type": "uint8"
        }
      ],
      "name": "NewFee",
      "type": "event"
    },
    {
      "anonymous": false,
      "inputs": [
        {
          "indexed": false,
          "name": "startTime",
          "type": "uint64"
        },
        {
          "indexed": false,
          "name": "id",
          "type": "uint32"
        },
        {
          "indexed": false,
          "name": "teamA",
          "type": "bytes32"
        },
        {
          "indexed": false,
          "name": "teamB",
          "type": "bytes32"
        }
      ],
      "name": "NewMatch",
      "type": "event"
    },
    {
      "anonymous": false,
      "inputs": [
        {
          "indexed": false,
          "name": "matchId",
          "type": "uint32"
        },
        {
          "indexed": false,
          "name": "withdrawable",
          "type": "bool"
        },
        {
          "indexed": false,
          "name": "canceled",
          "type": "bool"
        },
        {
          "indexed": false,
          "name": "bettable",
          "type": "bool"
        }
      ],
      "name": "CancelMatch",
      "type": "event"
    },
    {
      "anonymous": false,
      "inputs": [
        {
          "indexed": true,
          "name": "previousOwner",
          "type": "address"
        },
        {
          "indexed": true,
          "name": "newOwner",
          "type": "address"
        }
      ],
      "name": "OwnershipTransferred",
      "type": "event"
    },
    {
      "constant": false,
      "inputs": [
        {
          "name": "_id",
          "type": "uint256"
        },
        {
          "name": "_teamChoice",
          "type": "bytes32"
        }
      ],
      "name": "bet",
      "outputs": [],
      "payable": true,
      "stateMutability": "payable",
      "type": "function"
    },
    {
      "constant": false,
      "inputs": [
        {
          "name": "_id",
          "type": "uint256"
        },
        {
          "name": "_teamChoice",
          "type": "bytes32"
        }
      ],
      "name": "changeTeam",
      "outputs": [],
      "payable": false,
      "stateMutability": "nonpayable",
      "type": "function"
    },
    {
      "constant": false,
      "inputs": [
        {
          "name": "_newFeePercentage",
          "type": "uint256"
        }
      ],
      "name": "setFee",
      "outputs": [],
      "payable": false,
      "stateMutability": "nonpayable",
      "type": "function"
    },
    {
      "constant": true,
      "inputs": [
        {
          "name": "_id",
          "type": "uint256"
        },
        {
          "name": "_teamChoice",
          "type": "bytes32"
        }
      ],
      "name": "getUserBet",
      "outputs": [
        {
          "name": "amount",
          "type": "uint256"
        }
      ],
      "payable": false,
      "stateMutability": "view",
      "type": "function"
    }
  ],
  "bytecode": "0x60806040526611c37937e080006003556801a055690d9db800006004556003600560006101000a81548160ff021916908360ff160217905550336000806101000a81548173ffffffffffffffffffffffffffffffffffffffff021916908373ffffffffffffffffffffffffffffffffffffffff1602179055506124e8806100876000396000f3006080604052600436106100fc576000357c0100000000000000000000000000000000000000000000000000000000900463ffffffff1680630c6387011461010157806318cd4d83146102215780632e5b2168146102725780633aacd6161461029d57806344d3300b146102ec5780634768d4ef14610327578063558e44d31461040d5780636141654b1461043e57806369fe0e2d146106365780638da5cb5b146106635780639619367d146106ba5780639cd20cb5146106e5578063a001ecdd14610754578063a9926de414610785578063b4ed9af5146107b3578063c82db8f9146107de578063e053fa611461080f578063f2fde38b1461092f575b600080fd5b34801561010d57600080fd5b5061013a600480360381019080803590602001908201803590602001919091929391929390505050610972565b60405180806020018060200180602001848103845287818151815260200191508051906020019060200280838360005b8381101561018557808201518184015260208101905061016a565b50505050905001848103835286818151815260200191508051906020019060200280838360005b838110156101c75780820151818401526020810190506101ac565b50505050905001848103825285818151815260200191508051906020019060200280838360005b838110156102095780820151818401526020810190506101ee565b50505050905001965050505050505060405180910390f35b34801561022d57600080fd5b506102506004803603810190808035600019169060200190929190505050610b79565b604051808263ffffffff1663ffffffff16815260200191505060405180910390f35b34801561027e57600080fd5b50610287610b9c565b6040518082815260200191505060405180910390f35b3480156102a957600080fd5b506102d6600480360381019080803590602001909291908035600019169060200190929190505050610ba2565b6040518082815260200191505060405180910390f35b3480156102f857600080fd5b50610325600480360381019080803590602001909291908035600019169060200190929190505050610cb5565b005b34801561033357600080fd5b506103526004803603810190808035906020019092919050505061126b565b604051808d81526020018c81526020018b67ffffffffffffffff1667ffffffffffffffff1681526020018a63ffffffff1663ffffffff1681526020018963ffffffff1663ffffffff16815260200188600019166000191681526020018760001916600019168152602001866000191660001916815260200185600019166000191681526020018415151515815260200183151515158152602001821515151581526020019c5050505050505050505050505060405180910390f35b34801561041957600080fd5b50610422611335565b604051808260ff1660ff16815260200191505060405180910390f35b34801561044a57600080fd5b5061047760048036038101908080359060200190820180359060200191909192939192939050505061133a565b6040518080602001806020018060200180602001806020018060200187810387528d818151815260200191508051906020019060200280838360005b838110156104ce5780820151818401526020810190506104b3565b5050505090500187810386528c818151815260200191508051906020019060200280838360005b838110156105105780820151818401526020810190506104f5565b5050505090500187810385528b818151815260200191508051906020019060200280838360005b83811015610552578082015181840152602081019050610537565b5050505090500187810384528a818151815260200191508051906020019060200280838360005b83811015610594578082015181840152602081019050610579565b50505050905001878103835289818151815260200191508051906020019060200280838360005b838110156105d65780820151818401526020810190506105bb565b50505050905001878103825288818151815260200191508051906020019060200280838360005b838110156106185780820151818401526020810190506105fd565b505050509050019c5050505050505050505050505060405180910390f35b34801561064257600080fd5b5061066160048036038101908080359060200190929190505050611736565b005b34801561066f57600080fd5b50610678611810565b604051808273ffffffffffffffffffffffffffffffffffffffff1673ffffffffffffffffffffffffffffffffffffffff16815260200191505060405180910390f35b3480156106c657600080fd5b506106cf611835565b6040518082815260200191505060405180910390f35b3480156106f157600080fd5b506107526004803603810190808035906020019092919080359060200190929190803560001916906020019092919080356000191690602001909291908035600019169060200190929190803560001916906020019092919050505061183b565b005b34801561076057600080fd5b50610769611bc7565b604051808260ff1660ff16815260200191505060405180910390f35b6107b1600480360381019080803590602001909291908035600019169060200190929190505050611bda565b005b3480156107bf57600080fd5b506107c8611fcc565b6040518082815260200191505060405180910390f35b3480156107ea57600080fd5b5061080d6004803603810190808035600019169060200190929190505050611fd9565b005b34801561081b57600080fd5b5061084860048036038101908080359060200190820180359060200191909192939192939050505061218f565b60405180806020018060200180602001848103845287818151815260200191508051906020019060200280838360005b83811015610893578082015181840152602081019050610878565b50505050905001848103835286818151815260200191508051906020019060200280838360005b838110156108d55780820151818401526020810190506108ba565b50505050905001848103825285818151815260200191508051906020019060200280838360005b838110156109175780820151818401526020810190506108fc565b50505050905001965050505050505060405180910390f35b34801561093b57600080fd5b50610970600480360381019080803573ffffffffffffffffffffffffffffffffffffffff169060200190929190505050612367565b005b6060806060806060806000888890506040519080825280602002602001820160405280156109af5781602001602082028038833980820191505090505b509350888890506040519080825280602002602001820160405280156109e45781602001602082028038833980820191505090505b50925088889050604051908082528060200260200182016040528015610a195781602001602082028038833980820191505090505b509150600090505b88889050811015610b655760018989838181101515610a3c57fe5b90506020020135815481101515610a4f57fe5b90600052602060002090600a020160070160009054906101000a900460ff168482815181101515610a7c57fe5b906020019060200201901515908115158152505060018989838181101515610aa057fe5b90506020020135815481101515610ab357fe5b90600052602060002090600a020160070160019054906101000a900460ff168382815181101515610ae057fe5b906020019060200201901515908115158152505060018989838181101515610b0457fe5b90506020020135815481101515610b1757fe5b90600052602060002090600a020160070160029054906101000a900460ff168282815181101515610b4457fe5b90602001906020020190151590811515815250508080600101915050610a21565b838383965096509650505050509250925092565b60026020528060005260406000206000915054906101000a900463ffffffff1681565b60045481565b600080600184815481101515610bb457fe5b90600052602060002090600a0201905082600019168160030154600019161480610be957508260001916816004015460001916145b1515610bf457600080fd5b80600301546000191683600019161415610c51578060080160003373ffffffffffffffffffffffffffffffffffffffff1673ffffffffffffffffffffffffffffffffffffffff168152602001908152602001600020549150610cab565b80600401546000191683600019161415610caa578060090160003373ffffffffffffffffffffffffffffffffffffffff1673ffffffffffffffffffffffffffffffffffffffff1681526020019081526020016000205491505b5b8191505092915050565b600080600184815481101515610cc757fe5b90600052602060002090600a020191508160070160029054906101000a900460ff161515610cf457600080fd5b8160030154600019168360001916148015610d50575060008260080160003373ffffffffffffffffffffffffffffffffffffffff1673ffffffffffffffffffffffffffffffffffffffff16815260200190815260200160002054145b8015610d9e575060008260090160003373ffffffffffffffffffffffffffffffffffffffff1673ffffffffffffffffffffffffffffffffffffffff1681526020019081526020016000205414155b15610f60578160090160003373ffffffffffffffffffffffffffffffffffffffff1673ffffffffffffffffffffffffffffffffffffffff168152602001908152602001600020548260080160003373ffffffffffffffffffffffffffffffffffffffff1673ffffffffffffffffffffffffffffffffffffffff168152602001908152602001600020819055508160090160003373ffffffffffffffffffffffffffffffffffffffff1673ffffffffffffffffffffffffffffffffffffffff1681526020019081526020016000205490508160090160003373ffffffffffffffffffffffffffffffffffffffff1673ffffffffffffffffffffffffffffffffffffffff1681526020019081526020016000205482600101600082825403925050819055508160090160003373ffffffffffffffffffffffffffffffffffffffff1673ffffffffffffffffffffffffffffffffffffffff16815260200190815260200160002054826000016000828254019250508190555060008260090160003373ffffffffffffffffffffffffffffffffffffffff1673ffffffffffffffffffffffffffffffffffffffff168152602001908152602001600020819055506111d2565b8160040154600019168360001916148015610fbc575060008260090160003373ffffffffffffffffffffffffffffffffffffffff1673ffffffffffffffffffffffffffffffffffffffff16815260200190815260200160002054145b801561100a575060008260080160003373ffffffffffffffffffffffffffffffffffffffff1673ffffffffffffffffffffffffffffffffffffffff1681526020019081526020016000205414155b156111cc578160080160003373ffffffffffffffffffffffffffffffffffffffff1673ffffffffffffffffffffffffffffffffffffffff168152602001908152602001600020548260090160003373ffffffffffffffffffffffffffffffffffffffff1673ffffffffffffffffffffffffffffffffffffffff168152602001908152602001600020819055508160080160003373ffffffffffffffffffffffffffffffffffffffff1673ffffffffffffffffffffffffffffffffffffffff1681526020019081526020016000205490508160080160003373ffffffffffffffffffffffffffffffffffffffff1673ffffffffffffffffffffffffffffffffffffffff1681526020019081526020016000205482600001600082825403925050819055508160080160003373ffffffffffffffffffffffffffffffffffffffff1673ffffffffffffffffffffffffffffffffffffffff16815260200190815260200160002054826001016000828254019250508190555060008260080160003373ffffffffffffffffffffffffffffffffffffffff1673ffffffffffffffffffffffffffffffffffffffff168152602001908152602001600020819055506111d1565b600080fd5b5b7fd9c769d5fb1cc02fe460f80fa66b383376f042360cb1096e467f28f06e1ce27f33828585600001548660010154604051808673ffffffffffffffffffffffffffffffffffffffff1673ffffffffffffffffffffffffffffffffffffffff16815260200185815260200184600019166000191681526020018381526020018281526020019550505050505060405180910390a150505050565b60018181548110151561127a57fe5b90600052602060002090600a02016000915090508060000154908060010154908060020160009054906101000a900467ffffffffffffffff16908060020160089054906101000a900463ffffffff169080600201600c9054906101000a900463ffffffff16908060030154908060040154908060050154908060060154908060070160009054906101000a900460ff16908060070160019054906101000a900460ff16908060070160029054906101000a900460ff1690508c565b600681565b60608060608060608060608060608060608060008e8e90506040519080825280602002602001820160405280156113805781602001602082028038833980820191505090505b5096508e8e90506040519080825280602002602001820160405280156113b55781602001602082028038833980820191505090505b5095508e8e90506040519080825280602002602001820160405280156113ea5781602001602082028038833980820191505090505b5094508e8e905060405190808252806020026020018201604052801561141f5781602001602082028038833980820191505090505b5093508e8e90506040519080825280602002602001820160405280156114545781602001602082028038833980820191505090505b5092508e8e90506040519080825280602002602001820160405280156114895781602001602082028038833980820191505090505b509150600090505b8e8e90508110156117135760018f8f8381811015156114ac57fe5b905060200201358154811015156114bf57fe5b90600052602060002090600a0201600201600c9054906101000a900463ffffffff1687828151811015156114ef57fe5b9060200190602002019063ffffffff16908163ffffffff168152505060018f8f83818110151561151b57fe5b9050602002013581548110151561152e57fe5b90600052602060002090600a020160020160009054906101000a900467ffffffffffffffff16868281518110151561156257fe5b9060200190602002019067ffffffffffffffff16908167ffffffffffffffff168152505060018f8f83818110151561159657fe5b905060200201358154811015156115a957fe5b90600052602060002090600a020160020160089054906101000a900463ffffffff1685828151811015156115d957fe5b9060200190602002019063ffffffff16908163ffffffff168152505060018f8f83818110151561160557fe5b9050602002013581548110151561161857fe5b90600052602060002090600a020160030154848281518110151561163857fe5b90602001906020020190600019169081600019168152505060018f8f83818110151561166057fe5b9050602002013581548110151561167357fe5b90600052602060002090600a020160040154838281518110151561169357fe5b90602001906020020190600019169081600019168152505060018f8f8381811015156116bb57fe5b905060200201358154811015156116ce57fe5b90600052602060002090600a02016005015482828151811015156116ee57fe5b9060200190602002019060001916908160001916815250508080600101915050611491565b8686868686869c509c509c509c509c509c50505050505050509295509295509295565b6000809054906101000a900473ffffffffffffffffffffffffffffffffffffffff1673ffffffffffffffffffffffffffffffffffffffff163373ffffffffffffffffffffffffffffffffffffffff1614151561179157600080fd5b8060ff16811415156117a257600080fd5b600660ff1681111515156117b557600080fd5b80600560006101000a81548160ff021916908360ff1602179055507f7449f3d17e20ff81ca3bf49c50df04b4c2848e80067f6430447a80124785a40181604051808260ff1660ff16815260200191505060405180910390a150565b6000809054906101000a900473ffffffffffffffffffffffffffffffffffffffff1681565b60035481565b60008060009054906101000a900473ffffffffffffffffffffffffffffffffffffffff1673ffffffffffffffffffffffffffffffffffffffff163373ffffffffffffffffffffffffffffffffffffffff1614151561189857600080fd5b8680421015156118a757600080fd5b8767ffffffffffffffff16881415156118bf57600080fd5b8663ffffffff16871415156118d357600080fd5b600060026000856000191660001916815260200190815260200160002060009054906101000a900463ffffffff1663ffffffff1614151561191357600080fd5b6001806101806040519081016040528060008152602001600081526020018b67ffffffffffffffff1681526020018a63ffffffff16815260200160018054905063ffffffff16815260200189600019168152602001886000191681526020018760001916815260200160008019168152602001600015158152602001600015158152602001600115158152509080600181540180825580915050906001820390600052602060002090600a020160009091929091909150600082015181600001556020820151816001015560408201518160020160006101000a81548167ffffffffffffffff021916908367ffffffffffffffff16021790555060608201518160020160086101000a81548163ffffffff021916908363ffffffff160217905550608082015181600201600c6101000a81548163ffffffff021916908363ffffffff16021790555060a0820151816003019060001916905560c0820151816004019060001916905560e0820151816005019060001916905561010082015181600601906000191690556101208201518160070160006101000a81548160ff0219169083151502179055506101408201518160070160016101000a81548160ff0219169083151502179055506101608201518160070160026101000a81548160ff02191690831515021790555050500391508160026000856000191660001916815260200190815260200160002060006101000a81548163ffffffff021916908363ffffffff1602179055507f2353e1682baae4611e234e048b2703b2e3bde88b18af6faeb3b462f39572939988838888604051808567ffffffffffffffff1667ffffffffffffffff1681526020018463ffffffff1663ffffffff1681526020018360001916600019168152602001826000191660001916815260200194505050505060405180910390a15050505050505050565b600560009054906101000a900460ff1681565b600080600184815481101515611bec57fe5b90600052602060002090600a020191506001340290508160070160029054906101000a900460ff161515611c1f57600080fd5b82600019168260030154600019161480611c4457508260001916826004015460001916145b1515611c4f57600080fd5b8260001916826003015460001916148015611cab575060008260090160003373ffffffffffffffffffffffffffffffffffffffff1673ffffffffffffffffffffffffffffffffffffffff16815260200190815260200160002054145b15611dbe57600454818360080160003373ffffffffffffffffffffffffffffffffffffffff1673ffffffffffffffffffffffffffffffffffffffff168152602001908152602001600020540111151515611d0457600080fd5b600354818360080160003373ffffffffffffffffffffffffffffffffffffffff1673ffffffffffffffffffffffffffffffffffffffff168152602001908152602001600020540110151515611d5857600080fd5b808260080160003373ffffffffffffffffffffffffffffffffffffffff1673ffffffffffffffffffffffffffffffffffffffff16815260200190815260200160002060008282540192505081905550808260000160008282540192505081905550611f33565b8260001916826004015460001916148015611e1a575060008260080160003373ffffffffffffffffffffffffffffffffffffffff1673ffffffffffffffffffffffffffffffffffffffff16815260200190815260200160002054145b15611f2d57600454818360090160003373ffffffffffffffffffffffffffffffffffffffff1673ffffffffffffffffffffffffffffffffffffffff168152602001908152602001600020540111151515611e7357600080fd5b600354818360080160003373ffffffffffffffffffffffffffffffffffffffff1673ffffffffffffffffffffffffffffffffffffffff168152602001908152602001600020540110151515611ec757600080fd5b808260090160003373ffffffffffffffffffffffffffffffffffffffff1673ffffffffffffffffffffffffffffffffffffffff16815260200190815260200160002060008282540192505081905550808260010160008282540192505081905550611f32565b600080fd5b5b7f7540b832fcde2f4654848b1160a8ccb161316516464cf8e43c15e8271fd20bc633828585600001548660010154604051808673ffffffffffffffffffffffffffffffffffffffff1673ffffffffffffffffffffffffffffffffffffffff16815260200185815260200184600019166000191681526020018381526020018281526020019550505050505060405180910390a150505050565b6000600180549050905090565b60008060009054906101000a900473ffffffffffffffffffffffffffffffffffffffff1673ffffffffffffffffffffffffffffffffffffffff163373ffffffffffffffffffffffffffffffffffffffff1614151561203657600080fd5b600160026000846000191660001916815260200190815260200160002060009054906101000a900463ffffffff1663ffffffff1681548110151561207657fe5b90600052602060002090600a0201905060018160070160016101000a81548160ff02191690831515021790555060018160070160006101000a81548160ff02191690831515021790555060008160070160026101000a81548160ff0219169083151502179055507f0cdccc5ba942abcedd6ee843a02109a12c92959308571967737538fa1a7e93818160020160089054906101000a900463ffffffff168260070160009054906101000a900460ff168360070160019054906101000a900460ff168460070160029054906101000a900460ff16604051808563ffffffff1663ffffffff16815260200184151515158152602001831515151581526020018215151515815260200194505050505060405180910390a15050565b6060806060806060806000888890506040519080825280602002602001820160405280156121cc5781602001602082028038833980820191505090505b509350888890506040519080825280602002602001820160405280156122015781602001602082028038833980820191505090505b509250888890506040519080825280602002602001820160405280156122365781602001602082028038833980820191505090505b509150600090505b88889050811015612353576001898983818110151561225957fe5b9050602002013581548110151561226c57fe5b90600052602060002090600a020160060154848281518110151561228c57fe5b906020019060200201906000191690816000191681525050600189898381811015156122b457fe5b905060200201358154811015156122c757fe5b90600052602060002090600a02016000015483828151811015156122e757fe5b90602001906020020181815250506001898983818110151561230557fe5b9050602002013581548110151561231857fe5b90600052602060002090600a020160010154828281518110151561233857fe5b9060200190602002018181525050808060010191505061223e565b838383965096509650505050509250925092565b6000809054906101000a900473ffffffffffffffffffffffffffffffffffffffff1673ffffffffffffffffffffffffffffffffffffffff163373ffffffffffffffffffffffffffffffffffffffff161415156123c257600080fd5b600073ffffffffffffffffffffffffffffffffffffffff168173ffffffffffffffffffffffffffffffffffffffff16141515156123fe57600080fd5b8073ffffffffffffffffffffffffffffffffffffffff166000809054906101000a900473ffffffffffffffffffffffffffffffffffffffff1673ffffffffffffffffffffffffffffffffffffffff167f8be0079c531659141344cd1fd0a4f28419497f9722a3daafe3b4186f6b6457e060405160405180910390a3806000806101000a81548173ffffffffffffffffffffffffffffffffffffffff021916908373ffffffffffffffffffffffffffffffffffffffff160217905550505600a165627a7a72305820fcf500f9f16806e9262d0f379e94cb52a36696398cad7e1258baa7467863e6c40029",
  "source": "pragma solidity ^0.4.24;\n\nimport \"./MatchFactory.sol\";\n\ncontract MatchBetting is MatchFactory {\n\n  event NewBet(address user, uint amount, bytes32 teamChoice, uint teamATotalBets, uint teamBTotalBets);\n  event TeamChange(address user, uint amount, bytes32 newTeam, uint teamATotalBets, uint teamBTotalBets);\n  event NewFee(uint8 newFee);\n\n  uint public minBet = 5000000000000000 wei;\n  uint public maxBet = 30000000000000000000 wei;\n  \n  uint8 public constant MAX_FEE_PERCENTAGE = 6;\n  uint8 public feePercentage = 3;\n\n  function bet(uint _id, bytes32 _teamChoice) external payable {\n    Match storage m = matches[_id];\n    uint amount = msg.value * 1 wei;\n    \n    require(m.bettable);\n    require(m.teamA == _teamChoice || m.teamB == _teamChoice);\n\n    if (m.teamA == _teamChoice && m.teamBBets[msg.sender] == 0) {\n      require(m.teamABets[msg.sender] + amount <= maxBet);\n      require(m.teamABets[msg.sender] + amount >= minBet);  \n      m.teamABets[msg.sender] += amount;\n      m.teamATotalBets += amount;\n    } else if (m.teamB == _teamChoice && m.teamABets[msg.sender] == 0) {\n      require(m.teamBBets[msg.sender] + amount <= maxBet);\n      require(m.teamABets[msg.sender] + amount >= minBet);\n      m.teamBBets[msg.sender] += amount;\n      m.teamBTotalBets += amount;\n    } else { \n      revert();\n    }\n\n    emit NewBet(msg.sender, amount, _teamChoice, m.teamATotalBets, m.teamBTotalBets);\n  }\n\n  function changeTeam(uint _id, bytes32 _teamChoice) external {\n    Match storage m = matches[_id];\n    uint amount;\n\n    require(m.bettable);\n\n    if (_teamChoice == m.teamA && m.teamABets[msg.sender] == 0 && m.teamBBets[msg.sender] != 0) {\n      m.teamABets[msg.sender] = m.teamBBets[msg.sender];\n      amount = m.teamBBets[msg.sender];\n      m.teamBTotalBets -= m.teamBBets[msg.sender];\n      m.teamATotalBets += m.teamBBets[msg.sender];      \n      m.teamBBets[msg.sender] = 0;\n    } else if (_teamChoice == m.teamB && m.teamBBets[msg.sender] == 0 && m.teamABets[msg.sender] != 0) {\n      m.teamBBets[msg.sender] = m.teamABets[msg.sender];\n      amount = m.teamABets[msg.sender];\n      m.teamATotalBets -= m.teamABets[msg.sender];\n      m.teamBTotalBets += m.teamABets[msg.sender];\n      m.teamABets[msg.sender] = 0;\n    } else {\n      revert();\n    }\n\n    emit TeamChange(msg.sender, amount, _teamChoice, m.teamATotalBets, m.teamBTotalBets);\n  }\n\n  function setFee(uint256 _newFeePercentage) external onlyOwner {\n    require(_newFeePercentage == uint8(_newFeePercentage));\n    require(_newFeePercentage <= MAX_FEE_PERCENTAGE);\n    feePercentage = uint8(_newFeePercentage);\n    emit NewFee(uint8(_newFeePercentage));\n  }\n\n  function getUserBet(uint _id, bytes32 _teamChoice)\n    public \n    view \n    returns (\n      uint amount\n  ) {\n    Match storage m = matches[_id];\n    \n    require(m.teamA == _teamChoice || m.teamB == _teamChoice);\n    \n    if (_teamChoice == m.teamA) {\n      amount = m.teamABets[msg.sender];\n    } else if (_teamChoice == m.teamB) {\n      amount = m.teamBBets[msg.sender];\n    }\n\n    return amount;\n  }\n}",
  "sourcePath": "/Users/liarolf/Documents/Ethereum/Ethlantis/contracts/MatchBetting.sol",
  "compiler": {
    "name": "solc",
    "version": "0.4.24+commit.e67f0147.Emscripten.clang"
  },
  "schemaVersion": "2.0.0",
  "updatedAt": "2018-06-04T13:36:57.679Z"
}