{
  "contractName": "MatchBetting",
  "abi": [
    {
      "constant": true,
      "inputs": [
        {
          "name": "indexes",
          "type": "uint256[]"
        }
      ],
      "name": "getMatchesStatus",
      "outputs": [
        {
          "name": "",
          "type": "bool[]"
        },
        {
          "name": "",
          "type": "bool[]"
        },
        {
          "name": "",
          "type": "bool[]"
        }
      ],
      "payable": false,
      "stateMutability": "view",
      "type": "function"
    },
    {
      "constant": true,
      "inputs": [
        {
          "name": "",
          "type": "bytes32"
        }
      ],
      "name": "hashToMatchId",
      "outputs": [
        {
          "name": "",
          "type": "uint32"
        }
      ],
      "payable": false,
      "stateMutability": "view",
      "type": "function"
    },
    {
      "constant": true,
      "inputs": [],
      "name": "maxBet",
      "outputs": [
        {
          "name": "",
          "type": "uint256"
        }
      ],
      "payable": false,
      "stateMutability": "view",
      "type": "function"
    },
    {
      "constant": true,
      "inputs": [
        {
          "name": "",
          "type": "uint256"
        }
      ],
      "name": "matches",
      "outputs": [
        {
          "name": "teamATotalBets",
          "type": "uint256"
        },
        {
          "name": "teamBTotalBets",
          "type": "uint256"
        },
        {
          "name": "startTime",
          "type": "uint64"
        },
        {
          "name": "matchId",
          "type": "uint32"
        },
        {
          "name": "id",
          "type": "uint32"
        },
        {
          "name": "teamA",
          "type": "bytes32"
        },
        {
          "name": "teamB",
          "type": "bytes32"
        },
        {
          "name": "gameType",
          "type": "bytes32"
        },
        {
          "name": "winner",
          "type": "bytes32"
        },
        {
          "name": "withdrawable",
          "type": "bool"
        },
        {
          "name": "canceled",
          "type": "bool"
        },
        {
          "name": "bettable",
          "type": "bool"
        }
      ],
      "payable": false,
      "stateMutability": "view",
      "type": "function"
    },
    {
      "constant": true,
      "inputs": [],
      "name": "MAX_FEE_PERCENTAGE",
      "outputs": [
        {
          "name": "",
          "type": "uint8"
        }
      ],
      "payable": false,
      "stateMutability": "view",
      "type": "function"
    },
    {
      "constant": true,
      "inputs": [
        {
          "name": "indexes",
          "type": "uint256[]"
        }
      ],
      "name": "getMatchesInfo",
      "outputs": [
        {
          "name": "",
          "type": "uint32[]"
        },
        {
          "name": "",
          "type": "uint64[]"
        },
        {
          "name": "",
          "type": "uint32[]"
        },
        {
          "name": "",
          "type": "bytes32[]"
        },
        {
          "name": "",
          "type": "bytes32[]"
        },
        {
          "name": "",
          "type": "bytes32[]"
        }
      ],
      "payable": false,
      "stateMutability": "view",
      "type": "function"
    },
    {
      "constant": true,
      "inputs": [],
      "name": "owner",
      "outputs": [
        {
          "name": "",
          "type": "address"
        }
      ],
      "payable": false,
      "stateMutability": "view",
      "type": "function"
    },
    {
      "constant": true,
      "inputs": [],
      "name": "minBet",
      "outputs": [
        {
          "name": "",
          "type": "uint256"
        }
      ],
      "payable": false,
      "stateMutability": "view",
      "type": "function"
    },
    {
      "constant": false,
      "inputs": [
        {
          "name": "_startTime",
          "type": "uint256"
        },
        {
          "name": "_matchId",
          "type": "uint256"
        },
        {
          "name": "_teamA",
          "type": "bytes32"
        },
        {
          "name": "_teamB",
          "type": "bytes32"
        },
        {
          "name": "_gameType",
          "type": "bytes32"
        },
        {
          "name": "_matchHash",
          "type": "bytes32"
        }
      ],
      "name": "addMatch",
      "outputs": [],
      "payable": false,
      "stateMutability": "nonpayable",
      "type": "function"
    },
    {
      "constant": true,
      "inputs": [],
      "name": "feePercentage",
      "outputs": [
        {
          "name": "",
          "type": "uint8"
        }
      ],
      "payable": false,
      "stateMutability": "view",
      "type": "function"
    },
    {
      "constant": true,
      "inputs": [],
      "name": "getMatchesCount",
      "outputs": [
        {
          "name": "",
          "type": "uint256"
        }
      ],
      "payable": false,
      "stateMutability": "view",
      "type": "function"
    },
    {
      "constant": false,
      "inputs": [
        {
          "name": "_matchHash",
          "type": "bytes32"
        }
      ],
      "name": "cancelMatch",
      "outputs": [],
      "payable": false,
      "stateMutability": "nonpayable",
      "type": "function"
    },
    {
      "constant": true,
      "inputs": [
        {
          "name": "indexes",
          "type": "uint256[]"
        }
      ],
      "name": "getMatchesResult",
      "outputs": [
        {
          "name": "",
          "type": "bytes32[]"
        },
        {
          "name": "",
          "type": "uint256[]"
        },
        {
          "name": "",
          "type": "uint256[]"
        }
      ],
      "payable": false,
      "stateMutability": "view",
      "type": "function"
    },
    {
      "constant": false,
      "inputs": [
        {
          "name": "newOwner",
          "type": "address"
        }
      ],
      "name": "transferOwnership",
      "outputs": [],
      "payable": false,
      "stateMutability": "nonpayable",
      "type": "function"
    },
    {
      "anonymous": false,
      "inputs": [
        {
          "indexed": false,
          "name": "user",
          "type": "address"
        },
        {
          "indexed": false,
          "name": "amount",
          "type": "uint256"
        },
        {
          "indexed": false,
          "name": "teamChoice",
          "type": "bytes32"
        },
        {
          "indexed": false,
          "name": "teamATotalBets",
          "type": "uint256"
        },
        {
          "indexed": false,
          "name": "teamBTotalBets",
          "type": "uint256"
        }
      ],
      "name": "NewBet",
      "type": "event"
    },
    {
      "anonymous": false,
      "inputs": [
        {
          "indexed": false,
          "name": "user",
          "type": "address"
        },
        {
          "indexed": false,
          "name": "amount",
          "type": "uint256"
        },
        {
          "indexed": false,
          "name": "newTeam",
          "type": "bytes32"
        },
        {
          "indexed": false,
          "name": "teamATotalBets",
          "type": "uint256"
        },
        {
          "indexed": false,
          "name": "teamBTotalBets",
          "type": "uint256"
        }
      ],
      "name": "TeamChange",
      "type": "event"
    },
    {
      "anonymous": false,
      "inputs": [
        {
          "indexed": false,
          "name": "newFee",
          "type": "uint8"
        }
      ],
      "name": "NewFee",
      "type": "event"
    },
    {
      "anonymous": false,
      "inputs": [
        {
          "indexed": false,
          "name": "startTime",
          "type": "uint64"
        },
        {
          "indexed": false,
          "name": "id",
          "type": "uint32"
        },
        {
          "indexed": false,
          "name": "teamA",
          "type": "bytes32"
        },
        {
          "indexed": false,
          "name": "teamB",
          "type": "bytes32"
        }
      ],
      "name": "NewMatch",
      "type": "event"
    },
    {
      "anonymous": false,
      "inputs": [
        {
          "indexed": false,
          "name": "matchId",
          "type": "uint32"
        },
        {
          "indexed": false,
          "name": "withdrawable",
          "type": "bool"
        },
        {
          "indexed": false,
          "name": "canceled",
          "type": "bool"
        },
        {
          "indexed": false,
          "name": "bettable",
          "type": "bool"
        }
      ],
      "name": "CancelMatch",
      "type": "event"
    },
    {
      "anonymous": false,
      "inputs": [
        {
          "indexed": true,
          "name": "previousOwner",
          "type": "address"
        },
        {
          "indexed": true,
          "name": "newOwner",
          "type": "address"
        }
      ],
      "name": "OwnershipTransferred",
      "type": "event"
    },
    {
      "constant": false,
      "inputs": [
        {
          "name": "_id",
          "type": "uint256"
        },
        {
          "name": "_teamChoice",
          "type": "bytes32"
        }
      ],
      "name": "bet",
      "outputs": [],
      "payable": true,
      "stateMutability": "payable",
      "type": "function"
    },
    {
      "constant": false,
      "inputs": [
        {
          "name": "_id",
          "type": "uint256"
        }
      ],
      "name": "swapTeam",
      "outputs": [],
      "payable": false,
      "stateMutability": "nonpayable",
      "type": "function"
    },
    {
      "constant": false,
      "inputs": [
        {
          "name": "_newFeePercentage",
          "type": "uint256"
        }
      ],
      "name": "setFee",
      "outputs": [],
      "payable": false,
      "stateMutability": "nonpayable",
      "type": "function"
    },
    {
      "constant": true,
      "inputs": [
        {
          "name": "_id",
          "type": "uint256"
        },
        {
          "name": "_teamChoice",
          "type": "bytes32"
        }
      ],
      "name": "getUserBet",
      "outputs": [
        {
          "name": "amount",
          "type": "uint256"
        }
      ],
      "payable": false,
      "stateMutability": "view",
      "type": "function"
    }
  ],
  "bytecode": "0x60806040526611c37937e080006003556801a055690d9db800006004556003600560006101000a81548160ff021916908360ff160217905550336000806101000a81548173ffffffffffffffffffffffffffffffffffffffff021916908373ffffffffffffffffffffffffffffffffffffffff1602179055506123b8806100876000396000f3006080604052600436106100fc576000357c0100000000000000000000000000000000000000000000000000000000900463ffffffff1680630c6387011461010157806318cd4d83146102215780632e5b2168146102725780633aacd6161461029d5780634768d4ef146102ec578063558e44d3146103d25780636141654b14610403578063662dac39146105fb57806369fe0e2d146106285780638da5cb5b146106555780639619367d146106ac5780639cd20cb5146106d7578063a001ecdd14610746578063a9926de414610777578063b4ed9af5146107a5578063c82db8f9146107d0578063e053fa6114610801578063f2fde38b14610921575b600080fd5b34801561010d57600080fd5b5061013a600480360381019080803590602001908201803590602001919091929391929390505050610964565b60405180806020018060200180602001848103845287818151815260200191508051906020019060200280838360005b8381101561018557808201518184015260208101905061016a565b50505050905001848103835286818151815260200191508051906020019060200280838360005b838110156101c75780820151818401526020810190506101ac565b50505050905001848103825285818151815260200191508051906020019060200280838360005b838110156102095780820151818401526020810190506101ee565b50505050905001965050505050505060405180910390f35b34801561022d57600080fd5b506102506004803603810190808035600019169060200190929190505050610b6b565b604051808263ffffffff1663ffffffff16815260200191505060405180910390f35b34801561027e57600080fd5b50610287610b8e565b6040518082815260200191505060405180910390f35b3480156102a957600080fd5b506102d6600480360381019080803590602001909291908035600019169060200190929190505050610b94565b6040518082815260200191505060405180910390f35b3480156102f857600080fd5b5061031760048036038101908080359060200190929190505050610ca7565b604051808d81526020018c81526020018b67ffffffffffffffff1667ffffffffffffffff1681526020018a63ffffffff1663ffffffff1681526020018963ffffffff1663ffffffff16815260200188600019166000191681526020018760001916600019168152602001866000191660001916815260200185600019166000191681526020018415151515815260200183151515158152602001821515151581526020019c5050505050505050505050505060405180910390f35b3480156103de57600080fd5b506103e7610d71565b604051808260ff1660ff16815260200191505060405180910390f35b34801561040f57600080fd5b5061043c600480360381019080803590602001908201803590602001919091929391929390505050610d76565b6040518080602001806020018060200180602001806020018060200187810387528d818151815260200191508051906020019060200280838360005b83811015610493578082015181840152602081019050610478565b5050505090500187810386528c818151815260200191508051906020019060200280838360005b838110156104d55780820151818401526020810190506104ba565b5050505090500187810385528b818151815260200191508051906020019060200280838360005b838110156105175780820151818401526020810190506104fc565b5050505090500187810384528a818151815260200191508051906020019060200280838360005b8381101561055957808201518184015260208101905061053e565b50505050905001878103835289818151815260200191508051906020019060200280838360005b8381101561059b578082015181840152602081019050610580565b50505050905001878103825288818151815260200191508051906020019060200280838360005b838110156105dd5780820151818401526020810190506105c2565b505050509050019c5050505050505050505050505060405180910390f35b34801561060757600080fd5b5061062660048036038101908080359060200190929190505050611172565b005b34801561063457600080fd5b5061065360048036038101908080359060200190929190505050611606565b005b34801561066157600080fd5b5061066a6116e0565b604051808273ffffffffffffffffffffffffffffffffffffffff1673ffffffffffffffffffffffffffffffffffffffff16815260200191505060405180910390f35b3480156106b857600080fd5b506106c1611705565b6040518082815260200191505060405180910390f35b3480156106e357600080fd5b506107446004803603810190808035906020019092919080359060200190929190803560001916906020019092919080356000191690602001909291908035600019169060200190929190803560001916906020019092919050505061170b565b005b34801561075257600080fd5b5061075b611a97565b604051808260ff1660ff16815260200191505060405180910390f35b6107a3600480360381019080803590602001909291908035600019169060200190929190505050611aaa565b005b3480156107b157600080fd5b506107ba611e9c565b6040518082815260200191505060405180910390f35b3480156107dc57600080fd5b506107ff6004803603810190808035600019169060200190929190505050611ea9565b005b34801561080d57600080fd5b5061083a60048036038101908080359060200190820180359060200191909192939192939050505061205f565b60405180806020018060200180602001848103845287818151815260200191508051906020019060200280838360005b8381101561088557808201518184015260208101905061086a565b50505050905001848103835286818151815260200191508051906020019060200280838360005b838110156108c75780820151818401526020810190506108ac565b50505050905001848103825285818151815260200191508051906020019060200280838360005b838110156109095780820151818401526020810190506108ee565b50505050905001965050505050505060405180910390f35b34801561092d57600080fd5b50610962600480360381019080803573ffffffffffffffffffffffffffffffffffffffff169060200190929190505050612237565b005b6060806060806060806000888890506040519080825280602002602001820160405280156109a15781602001602082028038833980820191505090505b509350888890506040519080825280602002602001820160405280156109d65781602001602082028038833980820191505090505b50925088889050604051908082528060200260200182016040528015610a0b5781602001602082028038833980820191505090505b509150600090505b88889050811015610b575760018989838181101515610a2e57fe5b90506020020135815481101515610a4157fe5b90600052602060002090600a020160070160009054906101000a900460ff168482815181101515610a6e57fe5b906020019060200201901515908115158152505060018989838181101515610a9257fe5b90506020020135815481101515610aa557fe5b90600052602060002090600a020160070160019054906101000a900460ff168382815181101515610ad257fe5b906020019060200201901515908115158152505060018989838181101515610af657fe5b90506020020135815481101515610b0957fe5b90600052602060002090600a020160070160029054906101000a900460ff168282815181101515610b3657fe5b90602001906020020190151590811515815250508080600101915050610a13565b838383965096509650505050509250925092565b60026020528060005260406000206000915054906101000a900463ffffffff1681565b60045481565b600080600184815481101515610ba657fe5b90600052602060002090600a0201905082600019168160030154600019161480610bdb57508260001916816004015460001916145b1515610be657600080fd5b80600301546000191683600019161415610c43578060080160003373ffffffffffffffffffffffffffffffffffffffff1673ffffffffffffffffffffffffffffffffffffffff168152602001908152602001600020549150610c9d565b80600401546000191683600019161415610c9c578060090160003373ffffffffffffffffffffffffffffffffffffffff1673ffffffffffffffffffffffffffffffffffffffff1681526020019081526020016000205491505b5b8191505092915050565b600181815481101515610cb657fe5b90600052602060002090600a02016000915090508060000154908060010154908060020160009054906101000a900467ffffffffffffffff16908060020160089054906101000a900463ffffffff169080600201600c9054906101000a900463ffffffff16908060030154908060040154908060050154908060060154908060070160009054906101000a900460ff16908060070160019054906101000a900460ff16908060070160029054906101000a900460ff1690508c565b600681565b60608060608060608060608060608060608060008e8e9050604051908082528060200260200182016040528015610dbc5781602001602082028038833980820191505090505b5096508e8e9050604051908082528060200260200182016040528015610df15781602001602082028038833980820191505090505b5095508e8e9050604051908082528060200260200182016040528015610e265781602001602082028038833980820191505090505b5094508e8e9050604051908082528060200260200182016040528015610e5b5781602001602082028038833980820191505090505b5093508e8e9050604051908082528060200260200182016040528015610e905781602001602082028038833980820191505090505b5092508e8e9050604051908082528060200260200182016040528015610ec55781602001602082028038833980820191505090505b509150600090505b8e8e905081101561114f5760018f8f838181101515610ee857fe5b90506020020135815481101515610efb57fe5b90600052602060002090600a0201600201600c9054906101000a900463ffffffff168782815181101515610f2b57fe5b9060200190602002019063ffffffff16908163ffffffff168152505060018f8f838181101515610f5757fe5b90506020020135815481101515610f6a57fe5b90600052602060002090600a020160020160009054906101000a900467ffffffffffffffff168682815181101515610f9e57fe5b9060200190602002019067ffffffffffffffff16908167ffffffffffffffff168152505060018f8f838181101515610fd257fe5b90506020020135815481101515610fe557fe5b90600052602060002090600a020160020160089054906101000a900463ffffffff16858281518110151561101557fe5b9060200190602002019063ffffffff16908163ffffffff168152505060018f8f83818110151561104157fe5b9050602002013581548110151561105457fe5b90600052602060002090600a020160030154848281518110151561107457fe5b90602001906020020190600019169081600019168152505060018f8f83818110151561109c57fe5b905060200201358154811015156110af57fe5b90600052602060002090600a02016004015483828151811015156110cf57fe5b90602001906020020190600019169081600019168152505060018f8f8381811015156110f757fe5b9050602002013581548110151561110a57fe5b90600052602060002090600a020160050154828281518110151561112a57fe5b9060200190602002019060001916908160001916815250508080600101915050610ecd565b8686868686869c509c509c509c509c509c50505050505050509295509295509295565b600080600060018481548110151561118657fe5b90600052602060002090600a020192508260070160029054906101000a900460ff1615156111b357600080fd5b60008360080160003373ffffffffffffffffffffffffffffffffffffffff1673ffffffffffffffffffffffffffffffffffffffff16815260200190815260200160002054148015611246575060008360090160003373ffffffffffffffffffffffffffffffffffffffff1673ffffffffffffffffffffffffffffffffffffffff1681526020019081526020016000205414155b1561138d578260090160003373ffffffffffffffffffffffffffffffffffffffff1673ffffffffffffffffffffffffffffffffffffffff168152602001908152602001600020548360080160003373ffffffffffffffffffffffffffffffffffffffff1673ffffffffffffffffffffffffffffffffffffffff16815260200190815260200160002081905550826003015490508260090160003373ffffffffffffffffffffffffffffffffffffffff1673ffffffffffffffffffffffffffffffffffffffff16815260200190815260200160002054915081836001016000828254039250508190555081836000016000828254019250508190555060008360090160003373ffffffffffffffffffffffffffffffffffffffff1673ffffffffffffffffffffffffffffffffffffffff1681526020019081526020016000208190555061156d565b60008360090160003373ffffffffffffffffffffffffffffffffffffffff1673ffffffffffffffffffffffffffffffffffffffff16815260200190815260200160002054148015611420575060008360080160003373ffffffffffffffffffffffffffffffffffffffff1673ffffffffffffffffffffffffffffffffffffffff1681526020019081526020016000205414155b15611567578260080160003373ffffffffffffffffffffffffffffffffffffffff1673ffffffffffffffffffffffffffffffffffffffff168152602001908152602001600020548360090160003373ffffffffffffffffffffffffffffffffffffffff1673ffffffffffffffffffffffffffffffffffffffff16815260200190815260200160002081905550826004015490508260080160003373ffffffffffffffffffffffffffffffffffffffff1673ffffffffffffffffffffffffffffffffffffffff16815260200190815260200160002054915081836000016000828254039250508190555081836001016000828254019250508190555060008360080160003373ffffffffffffffffffffffffffffffffffffffff1673ffffffffffffffffffffffffffffffffffffffff1681526020019081526020016000208190555061156c565b600080fd5b5b7fd9c769d5fb1cc02fe460f80fa66b383376f042360cb1096e467f28f06e1ce27f33838386600001548760010154604051808673ffffffffffffffffffffffffffffffffffffffff1673ffffffffffffffffffffffffffffffffffffffff16815260200185815260200184600019166000191681526020018381526020018281526020019550505050505060405180910390a150505050565b6000809054906101000a900473ffffffffffffffffffffffffffffffffffffffff1673ffffffffffffffffffffffffffffffffffffffff163373ffffffffffffffffffffffffffffffffffffffff1614151561166157600080fd5b8060ff168114151561167257600080fd5b600660ff16811115151561168557600080fd5b80600560006101000a81548160ff021916908360ff1602179055507f7449f3d17e20ff81ca3bf49c50df04b4c2848e80067f6430447a80124785a40181604051808260ff1660ff16815260200191505060405180910390a150565b6000809054906101000a900473ffffffffffffffffffffffffffffffffffffffff1681565b60035481565b60008060009054906101000a900473ffffffffffffffffffffffffffffffffffffffff1673ffffffffffffffffffffffffffffffffffffffff163373ffffffffffffffffffffffffffffffffffffffff1614151561176857600080fd5b86804210151561177757600080fd5b8767ffffffffffffffff168814151561178f57600080fd5b8663ffffffff16871415156117a357600080fd5b600060026000856000191660001916815260200190815260200160002060009054906101000a900463ffffffff1663ffffffff161415156117e357600080fd5b6001806101806040519081016040528060008152602001600081526020018b67ffffffffffffffff1681526020018a63ffffffff16815260200160018054905063ffffffff16815260200189600019168152602001886000191681526020018760001916815260200160008019168152602001600015158152602001600015158152602001600115158152509080600181540180825580915050906001820390600052602060002090600a020160009091929091909150600082015181600001556020820151816001015560408201518160020160006101000a81548167ffffffffffffffff021916908367ffffffffffffffff16021790555060608201518160020160086101000a81548163ffffffff021916908363ffffffff160217905550608082015181600201600c6101000a81548163ffffffff021916908363ffffffff16021790555060a0820151816003019060001916905560c0820151816004019060001916905560e0820151816005019060001916905561010082015181600601906000191690556101208201518160070160006101000a81548160ff0219169083151502179055506101408201518160070160016101000a81548160ff0219169083151502179055506101608201518160070160026101000a81548160ff02191690831515021790555050500391508160026000856000191660001916815260200190815260200160002060006101000a81548163ffffffff021916908363ffffffff1602179055507f2353e1682baae4611e234e048b2703b2e3bde88b18af6faeb3b462f39572939988838888604051808567ffffffffffffffff1667ffffffffffffffff1681526020018463ffffffff1663ffffffff1681526020018360001916600019168152602001826000191660001916815260200194505050505060405180910390a15050505050505050565b600560009054906101000a900460ff1681565b600080600184815481101515611abc57fe5b90600052602060002090600a020191506001340290508160070160029054906101000a900460ff161515611aef57600080fd5b82600019168260030154600019161480611b1457508260001916826004015460001916145b1515611b1f57600080fd5b8260001916826003015460001916148015611b7b575060008260090160003373ffffffffffffffffffffffffffffffffffffffff1673ffffffffffffffffffffffffffffffffffffffff16815260200190815260200160002054145b15611c8e57600454818360080160003373ffffffffffffffffffffffffffffffffffffffff1673ffffffffffffffffffffffffffffffffffffffff168152602001908152602001600020540111151515611bd457600080fd5b600354818360080160003373ffffffffffffffffffffffffffffffffffffffff1673ffffffffffffffffffffffffffffffffffffffff168152602001908152602001600020540110151515611c2857600080fd5b808260080160003373ffffffffffffffffffffffffffffffffffffffff1673ffffffffffffffffffffffffffffffffffffffff16815260200190815260200160002060008282540192505081905550808260000160008282540192505081905550611e03565b8260001916826004015460001916148015611cea575060008260080160003373ffffffffffffffffffffffffffffffffffffffff1673ffffffffffffffffffffffffffffffffffffffff16815260200190815260200160002054145b15611dfd57600454818360090160003373ffffffffffffffffffffffffffffffffffffffff1673ffffffffffffffffffffffffffffffffffffffff168152602001908152602001600020540111151515611d4357600080fd5b600354818360080160003373ffffffffffffffffffffffffffffffffffffffff1673ffffffffffffffffffffffffffffffffffffffff168152602001908152602001600020540110151515611d9757600080fd5b808260090160003373ffffffffffffffffffffffffffffffffffffffff1673ffffffffffffffffffffffffffffffffffffffff16815260200190815260200160002060008282540192505081905550808260010160008282540192505081905550611e02565b600080fd5b5b7f7540b832fcde2f4654848b1160a8ccb161316516464cf8e43c15e8271fd20bc633828585600001548660010154604051808673ffffffffffffffffffffffffffffffffffffffff1673ffffffffffffffffffffffffffffffffffffffff16815260200185815260200184600019166000191681526020018381526020018281526020019550505050505060405180910390a150505050565b6000600180549050905090565b60008060009054906101000a900473ffffffffffffffffffffffffffffffffffffffff1673ffffffffffffffffffffffffffffffffffffffff163373ffffffffffffffffffffffffffffffffffffffff16141515611f0657600080fd5b600160026000846000191660001916815260200190815260200160002060009054906101000a900463ffffffff1663ffffffff16815481101515611f4657fe5b90600052602060002090600a0201905060018160070160016101000a81548160ff02191690831515021790555060018160070160006101000a81548160ff02191690831515021790555060008160070160026101000a81548160ff0219169083151502179055507f0cdccc5ba942abcedd6ee843a02109a12c92959308571967737538fa1a7e93818160020160089054906101000a900463ffffffff168260070160009054906101000a900460ff168360070160019054906101000a900460ff168460070160029054906101000a900460ff16604051808563ffffffff1663ffffffff16815260200184151515158152602001831515151581526020018215151515815260200194505050505060405180910390a15050565b60608060608060608060008888905060405190808252806020026020018201604052801561209c5781602001602082028038833980820191505090505b509350888890506040519080825280602002602001820160405280156120d15781602001602082028038833980820191505090505b509250888890506040519080825280602002602001820160405280156121065781602001602082028038833980820191505090505b509150600090505b88889050811015612223576001898983818110151561212957fe5b9050602002013581548110151561213c57fe5b90600052602060002090600a020160060154848281518110151561215c57fe5b9060200190602002019060001916908160001916815250506001898983818110151561218457fe5b9050602002013581548110151561219757fe5b90600052602060002090600a02016000015483828151811015156121b757fe5b9060200190602002018181525050600189898381811015156121d557fe5b905060200201358154811015156121e857fe5b90600052602060002090600a020160010154828281518110151561220857fe5b9060200190602002018181525050808060010191505061210e565b838383965096509650505050509250925092565b6000809054906101000a900473ffffffffffffffffffffffffffffffffffffffff1673ffffffffffffffffffffffffffffffffffffffff163373ffffffffffffffffffffffffffffffffffffffff1614151561229257600080fd5b600073ffffffffffffffffffffffffffffffffffffffff168173ffffffffffffffffffffffffffffffffffffffff16141515156122ce57600080fd5b8073ffffffffffffffffffffffffffffffffffffffff166000809054906101000a900473ffffffffffffffffffffffffffffffffffffffff1673ffffffffffffffffffffffffffffffffffffffff167f8be0079c531659141344cd1fd0a4f28419497f9722a3daafe3b4186f6b6457e060405160405180910390a3806000806101000a81548173ffffffffffffffffffffffffffffffffffffffff021916908373ffffffffffffffffffffffffffffffffffffffff160217905550505600a165627a7a7230582015c4de736f377126030a5f2ea6d7de1c0218a4eac95414d1e3089f7c340ca3c00029",
  "source": "pragma solidity ^0.4.24;\n\nimport \"./MatchFactory.sol\";\n\ncontract MatchBetting is MatchFactory {\n\n  event NewBet(address user, uint amount, bytes32 teamChoice, uint teamATotalBets, uint teamBTotalBets);\n  event TeamChange(address user, uint amount, bytes32 newTeam, uint teamATotalBets, uint teamBTotalBets);\n  event NewFee(uint8 newFee);\n\n  uint public minBet = 5000000000000000 wei;\n  uint public maxBet = 30000000000000000000 wei;\n  \n  uint8 public constant MAX_FEE_PERCENTAGE = 6;\n  uint8 public feePercentage = 3;\n\n  function bet(uint _id, bytes32 _teamChoice) external payable {\n    Match storage m = matches[_id];\n    uint amount = msg.value * 1 wei;\n    \n    require(m.bettable);\n    require(m.teamA == _teamChoice || m.teamB == _teamChoice);\n\n    if (m.teamA == _teamChoice && m.teamBBets[msg.sender] == 0) {\n      require(m.teamABets[msg.sender] + amount <= maxBet);\n      require(m.teamABets[msg.sender] + amount >= minBet);  \n      m.teamABets[msg.sender] += amount;\n      m.teamATotalBets += amount;\n    } else if (m.teamB == _teamChoice && m.teamABets[msg.sender] == 0) {\n      require(m.teamBBets[msg.sender] + amount <= maxBet);\n      require(m.teamABets[msg.sender] + amount >= minBet);\n      m.teamBBets[msg.sender] += amount;\n      m.teamBTotalBets += amount;\n    } else { \n      revert();\n    }\n\n    emit NewBet(msg.sender, amount, _teamChoice, m.teamATotalBets, m.teamBTotalBets);\n  }\n\n  function swapTeam(uint _id) external {\n    Match storage m = matches[_id];\n    uint betPlaced;\n    bytes32 teamChoice;\n\n    require(m.bettable);\n\n    if (m.teamABets[msg.sender] == 0 && m.teamBBets[msg.sender] != 0) {\n      m.teamABets[msg.sender] = m.teamBBets[msg.sender];\n      teamChoice = m.teamA;\n      betPlaced = m.teamBBets[msg.sender];\n      m.teamBTotalBets -= betPlaced;\n      m.teamATotalBets += betPlaced;      \n      m.teamBBets[msg.sender] = 0;\n    } else if (m.teamBBets[msg.sender] == 0 && m.teamABets[msg.sender] != 0) {\n      m.teamBBets[msg.sender] = m.teamABets[msg.sender];\n      teamChoice = m.teamB;\n      betPlaced = m.teamABets[msg.sender];\n      m.teamATotalBets -= betPlaced;\n      m.teamBTotalBets += betPlaced;\n      m.teamABets[msg.sender] = 0;\n    } else {\n      revert();\n    }\n\n    emit TeamChange(msg.sender, betPlaced, teamChoice, m.teamATotalBets, m.teamBTotalBets);\n  }\n\n  function setFee(uint256 _newFeePercentage) external onlyOwner {\n    require(_newFeePercentage == uint8(_newFeePercentage));\n    require(_newFeePercentage <= MAX_FEE_PERCENTAGE);\n    feePercentage = uint8(_newFeePercentage);\n    emit NewFee(uint8(_newFeePercentage));\n  }\n\n  function getUserBet(uint _id, bytes32 _teamChoice)\n    public \n    view \n    returns (\n      uint amount\n  ) {\n    Match storage m = matches[_id];\n    \n    require(m.teamA == _teamChoice || m.teamB == _teamChoice);\n    \n    if (_teamChoice == m.teamA) {\n      amount = m.teamABets[msg.sender];\n    } else if (_teamChoice == m.teamB) {\n      amount = m.teamBBets[msg.sender];\n    }\n\n    return amount;\n  }\n}",
  "sourcePath": "/Users/liarolf/Documents/Ethereum/Ethlantis/contracts/MatchBetting.sol",
  "compiler": {
    "name": "solc",
    "version": "0.4.24+commit.e67f0147.Emscripten.clang"
  },
  "schemaVersion": "2.0.0",
  "updatedAt": "2018-06-10T09:27:50.983Z"
}