{
  "contractName": "MatchFactory",
  "abi": [
    {
      "constant": true,
      "inputs": [
        {
          "name": "",
          "type": "uint256"
        }
      ],
      "name": "matchIdToId",
      "outputs": [
        {
          "name": "",
          "type": "uint256"
        }
      ],
      "payable": false,
      "stateMutability": "view",
      "type": "function"
    },
    {
      "constant": false,
      "inputs": [
        {
          "name": "_queryId",
          "type": "bytes32"
        },
        {
          "name": "_result",
          "type": "string"
        }
      ],
      "name": "__callback",
      "outputs": [],
      "payable": false,
      "stateMutability": "nonpayable",
      "type": "function"
    },
    {
      "constant": false,
      "inputs": [
        {
          "name": "myid",
          "type": "bytes32"
        },
        {
          "name": "result",
          "type": "string"
        },
        {
          "name": "proof",
          "type": "bytes"
        }
      ],
      "name": "__callback",
      "outputs": [],
      "payable": false,
      "stateMutability": "nonpayable",
      "type": "function"
    },
    {
      "constant": true,
      "inputs": [
        {
          "name": "",
          "type": "uint256"
        }
      ],
      "name": "matches",
      "outputs": [
        {
          "name": "teamATotalBets",
          "type": "uint256"
        },
        {
          "name": "teamBTotalBets",
          "type": "uint256"
        },
        {
          "name": "startTime",
          "type": "uint256"
        },
        {
          "name": "matchId",
          "type": "uint256"
        },
        {
          "name": "id",
          "type": "uint32"
        },
        {
          "name": "teamA",
          "type": "bytes32"
        },
        {
          "name": "teamB",
          "type": "bytes32"
        },
        {
          "name": "gameType",
          "type": "bytes32"
        },
        {
          "name": "winner",
          "type": "bytes32"
        },
        {
          "name": "withdrawable",
          "type": "bool"
        },
        {
          "name": "canceled",
          "type": "bool"
        },
        {
          "name": "bettable",
          "type": "bool"
        }
      ],
      "payable": false,
      "stateMutability": "view",
      "type": "function"
    },
    {
      "constant": true,
      "inputs": [],
      "name": "owner",
      "outputs": [
        {
          "name": "",
          "type": "address"
        }
      ],
      "payable": false,
      "stateMutability": "view",
      "type": "function"
    },
    {
      "constant": false,
      "inputs": [
        {
          "name": "_matchId",
          "type": "string"
        },
        {
          "name": "_gameType",
          "type": "string"
        }
      ],
      "name": "getMatchWinner",
      "outputs": [],
      "payable": true,
      "stateMutability": "payable",
      "type": "function"
    },
    {
      "constant": false,
      "inputs": [
        {
          "name": "newOwner",
          "type": "address"
        }
      ],
      "name": "transferOwnership",
      "outputs": [],
      "payable": false,
      "stateMutability": "nonpayable",
      "type": "function"
    },
    {
      "payable": false,
      "stateMutability": "nonpayable",
      "type": "fallback"
    },
    {
      "anonymous": false,
      "inputs": [
        {
          "indexed": false,
          "name": "startTime",
          "type": "uint256"
        },
        {
          "indexed": false,
          "name": "id",
          "type": "uint32"
        },
        {
          "indexed": false,
          "name": "teamA",
          "type": "bytes32"
        },
        {
          "indexed": false,
          "name": "teamB",
          "type": "bytes32"
        }
      ],
      "name": "NewMatch",
      "type": "event"
    },
    {
      "anonymous": false,
      "inputs": [
        {
          "indexed": false,
          "name": "matchId",
          "type": "uint256"
        },
        {
          "indexed": false,
          "name": "withdrawable",
          "type": "bool"
        },
        {
          "indexed": false,
          "name": "canceled",
          "type": "bool"
        },
        {
          "indexed": false,
          "name": "bettable",
          "type": "bool"
        }
      ],
      "name": "CancelMatch",
      "type": "event"
    },
    {
      "anonymous": false,
      "inputs": [
        {
          "indexed": false,
          "name": "log",
          "type": "string"
        }
      ],
      "name": "LogInfo",
      "type": "event"
    },
    {
      "anonymous": false,
      "inputs": [
        {
          "indexed": true,
          "name": "previousOwner",
          "type": "address"
        },
        {
          "indexed": true,
          "name": "newOwner",
          "type": "address"
        }
      ],
      "name": "OwnershipTransferred",
      "type": "event"
    },
    {
      "constant": false,
      "inputs": [
        {
          "name": "_startTime",
          "type": "uint256"
        },
        {
          "name": "_matchId",
          "type": "uint256"
        },
        {
          "name": "_teamA",
          "type": "bytes32"
        },
        {
          "name": "_teamB",
          "type": "bytes32"
        },
        {
          "name": "_gameType",
          "type": "bytes32"
        }
      ],
      "name": "addMatch",
      "outputs": [],
      "payable": false,
      "stateMutability": "nonpayable",
      "type": "function"
    },
    {
      "constant": false,
      "inputs": [
        {
          "name": "_matchId",
          "type": "uint256"
        }
      ],
      "name": "cancelMatch",
      "outputs": [],
      "payable": false,
      "stateMutability": "nonpayable",
      "type": "function"
    },
    {
      "constant": true,
      "inputs": [],
      "name": "getMatchesCount",
      "outputs": [
        {
          "name": "",
          "type": "uint256"
        }
      ],
      "payable": false,
      "stateMutability": "view",
      "type": "function"
    },
    {
      "constant": true,
      "inputs": [
        {
          "name": "indexes",
          "type": "uint256[]"
        }
      ],
      "name": "getMatchesInfo",
      "outputs": [
        {
          "name": "",
          "type": "uint32[]"
        },
        {
          "name": "",
          "type": "uint256[]"
        },
        {
          "name": "",
          "type": "uint256[]"
        },
        {
          "name": "",
          "type": "bytes32[]"
        },
        {
          "name": "",
          "type": "bytes32[]"
        },
        {
          "name": "",
          "type": "bytes32[]"
        }
      ],
      "payable": false,
      "stateMutability": "view",
      "type": "function"
    },
    {
      "constant": true,
      "inputs": [
        {
          "name": "indexes",
          "type": "uint256[]"
        }
      ],
      "name": "getMatchesStatus",
      "outputs": [
        {
          "name": "",
          "type": "bool[]"
        },
        {
          "name": "",
          "type": "bool[]"
        },
        {
          "name": "",
          "type": "bool[]"
        }
      ],
      "payable": false,
      "stateMutability": "view",
      "type": "function"
    },
    {
      "constant": true,
      "inputs": [
        {
          "name": "indexes",
          "type": "uint256[]"
        }
      ],
      "name": "getMatchesResult",
      "outputs": [
        {
          "name": "",
          "type": "bytes32[]"
        },
        {
          "name": "",
          "type": "uint256[]"
        },
        {
          "name": "",
          "type": "uint256[]"
        }
      ],
      "payable": false,
      "stateMutability": "view",
      "type": "function"
    }
  ],
  "bytecode": "0x608060405233600760006101000a81548173ffffffffffffffffffffffffffffffffffffffff021916908373ffffffffffffffffffffffffffffffffffffffff16021790555033600760006101000a81548173ffffffffffffffffffffffffffffffffffffffff021916908373ffffffffffffffffffffffffffffffffffffffff160217905550736f485c8bf6fc43ea212e93bbf8ce046c7f1cb4756000806101000a81548173ffffffffffffffffffffffffffffffffffffffff021916908373ffffffffffffffffffffffffffffffffffffffff16021790555061331d806100e96000396000f3006080604052600436106100c5576000357c0100000000000000000000000000000000000000000000000000000000900463ffffffff1680630c638701146100d757806312388626146101f757806327dc297e1461023857806338bbfa50146102af5780634768d4ef1461036c5780636141654b146104325780638da5cb5b1461062a578063b4ed9af514610681578063b4f7a837146106ac578063d02c8cdf1461070d578063e053fa611461073a578063e1bd43ab1461085a578063f2fde38b146108fc575b3480156100d157600080fd5b50600080fd5b3480156100e357600080fd5b5061011060048036038101908080359060200190820180359060200191909192939192939050505061093f565b60405180806020018060200180602001848103845287818151815260200191508051906020019060200280838360005b8381101561015b578082015181840152602081019050610140565b50505050905001848103835286818151815260200191508051906020019060200280838360005b8381101561019d578082015181840152602081019050610182565b50505050905001848103825285818151815260200191508051906020019060200280838360005b838110156101df5780820151818401526020810190506101c4565b50505050905001965050505050505060405180910390f35b34801561020357600080fd5b5061022260048036038101908080359060200190929190505050610b46565b6040518082815260200191505060405180910390f35b34801561024457600080fd5b506102ad6004803603810190808035600019169060200190929190803590602001908201803590602001908080601f0160208091040260200160405190810160405280939291908181526020018383808284378201915050505050509192919290505050610b5e565b005b3480156102bb57600080fd5b5061036a6004803603810190808035600019169060200190929190803590602001908201803590602001908080601f0160208091040260200160405190810160405280939291908181526020018383808284378201915050505050509192919290803590602001908201803590602001908080601f0160208091040260200160405190810160405280939291908181526020018383808284378201915050505050509192919290505050610c5f565b005b34801561037857600080fd5b5061039760048036038101908080359060200190929190505050610c64565b604051808d81526020018c81526020018b81526020018a81526020018963ffffffff1663ffffffff16815260200188600019166000191681526020018760001916600019168152602001866000191660001916815260200185600019166000191681526020018415151515815260200183151515158152602001821515151581526020019c5050505050505050505050505060405180910390f35b34801561043e57600080fd5b5061046b600480360381019080803590602001908201803590602001919091929391929390505050610d0a565b6040518080602001806020018060200180602001806020018060200187810387528d818151815260200191508051906020019060200280838360005b838110156104c25780820151818401526020810190506104a7565b5050505090500187810386528c818151815260200191508051906020019060200280838360005b838110156105045780820151818401526020810190506104e9565b5050505090500187810385528b818151815260200191508051906020019060200280838360005b8381101561054657808201518184015260208101905061052b565b5050505090500187810384528a818151815260200191508051906020019060200280838360005b8381101561058857808201518184015260208101905061056d565b50505050905001878103835289818151815260200191508051906020019060200280838360005b838110156105ca5780820151818401526020810190506105af565b50505050905001878103825288818151815260200191508051906020019060200280838360005b8381101561060c5780820151818401526020810190506105f1565b505050509050019c5050505050505050505050505060405180910390f35b34801561063657600080fd5b5061063f6110be565b604051808273ffffffffffffffffffffffffffffffffffffffff1673ffffffffffffffffffffffffffffffffffffffff16815260200191505060405180910390f35b34801561068d57600080fd5b506106966110e4565b6040518082815260200191505060405180910390f35b3480156106b857600080fd5b5061070b60048036038101908080359060200190929190803590602001909291908035600019169060200190929190803560001916906020019092919080356000191690602001909291905050506110f1565b005b34801561071957600080fd5b50610738600480360381019080803590602001909291905050506113c6565b005b34801561074657600080fd5b50610773600480360381019080803590602001908201803590602001919091929391929390505050611543565b60405180806020018060200180602001848103845287818151815260200191508051906020019060200280838360005b838110156107be5780820151818401526020810190506107a3565b50505050905001848103835286818151815260200191508051906020019060200280838360005b838110156108005780820151818401526020810190506107e5565b50505050905001848103825285818151815260200191508051906020019060200280838360005b83811015610842578082015181840152602081019050610827565b50505050905001965050505050505060405180910390f35b6108fa600480360381019080803590602001908201803590602001908080601f0160208091040260200160405190810160405280939291908181526020018383808284378201915050505050509192919290803590602001908201803590602001908080601f016020809104026020016040519081016040528093929190818152602001838380828437820191505050505050919291929050505061171b565b005b34801561090857600080fd5b5061093d600480360381019080803573ffffffffffffffffffffffffffffffffffffffff169060200190929190505050611a47565b005b60608060608060608060008888905060405190808252806020026020018201604052801561097c5781602001602082028038833980820191505090505b509350888890506040519080825280602002602001820160405280156109b15781602001602082028038833980820191505090505b509250888890506040519080825280602002602001820160405280156109e65781602001602082028038833980820191505090505b509150600090505b88889050811015610b325760058989838181101515610a0957fe5b90506020020135815481101515610a1c57fe5b90600052602060002090600c020160090160009054906101000a900460ff168482815181101515610a4957fe5b906020019060200201901515908115158152505060058989838181101515610a6d57fe5b90506020020135815481101515610a8057fe5b90600052602060002090600c020160090160019054906101000a900460ff168382815181101515610aad57fe5b906020019060200201901515908115158152505060058989838181101515610ad157fe5b90506020020135815481101515610ae457fe5b90600052602060002090600c020160090160029054906101000a900460ff168282815181101515610b1157fe5b906020019060200201901515908115158152505080806001019150506109ee565b838383965096509650505050509250925092565b60066020528060005260406000206000915090505481565b6000610b68611b9f565b73ffffffffffffffffffffffffffffffffffffffff163373ffffffffffffffffffffffffffffffffffffffff16141515610ba157600080fd5b60006008600085600019166000191681526020019081526020016000205414151515610bcc57600080fd5b60056000815481101515610bdc57fe5b90600052602060002090600c0201905060018160090160006101000a81548160ff02191690831515021790555060008160090160026101000a81548160ff021916908315150217905550610c2f82611efd565b81600801816000191690555060086000846000191660001916815260200190815260200160002060009055505050565b505050565b600581815481101515610c7357fe5b90600052602060002090600c02016000915090508060000154908060010154908060020154908060030154908060040160009054906101000a900463ffffffff16908060050154908060060154908060070154908060080154908060090160009054906101000a900460ff16908060090160019054906101000a900460ff16908060090160029054906101000a900460ff1690508c565b60608060608060608060608060608060608060008e8e9050604051908082528060200260200182016040528015610d505781602001602082028038833980820191505090505b5096508e8e9050604051908082528060200260200182016040528015610d855781602001602082028038833980820191505090505b5095508e8e9050604051908082528060200260200182016040528015610dba5781602001602082028038833980820191505090505b5094508e8e9050604051908082528060200260200182016040528015610def5781602001602082028038833980820191505090505b5093508e8e9050604051908082528060200260200182016040528015610e245781602001602082028038833980820191505090505b5092508e8e9050604051908082528060200260200182016040528015610e595781602001602082028038833980820191505090505b509150600090505b8e8e905081101561109b5760058f8f838181101515610e7c57fe5b90506020020135815481101515610e8f57fe5b90600052602060002090600c020160040160009054906101000a900463ffffffff168782815181101515610ebf57fe5b9060200190602002019063ffffffff16908163ffffffff168152505060058f8f838181101515610eeb57fe5b90506020020135815481101515610efe57fe5b90600052602060002090600c0201600201548682815181101515610f1e57fe5b906020019060200201818152505060058f8f838181101515610f3c57fe5b90506020020135815481101515610f4f57fe5b90600052602060002090600c0201600301548582815181101515610f6f57fe5b906020019060200201818152505060058f8f838181101515610f8d57fe5b90506020020135815481101515610fa057fe5b90600052602060002090600c0201600501548482815181101515610fc057fe5b90602001906020020190600019169081600019168152505060058f8f838181101515610fe857fe5b90506020020135815481101515610ffb57fe5b90600052602060002090600c020160060154838281518110151561101b57fe5b90602001906020020190600019169081600019168152505060058f8f83818110151561104357fe5b9050602002013581548110151561105657fe5b90600052602060002090600c020160070154828281518110151561107657fe5b9060200190602002019060001916908160001916815250508080600101915050610e61565b8686868686869c509c509c509c509c509c50505050505050509295509295509295565b600760009054906101000a900473ffffffffffffffffffffffffffffffffffffffff1681565b6000600580549050905090565b6000600760009054906101000a900473ffffffffffffffffffffffffffffffffffffffff1673ffffffffffffffffffffffffffffffffffffffff163373ffffffffffffffffffffffffffffffffffffffff1614151561114f57600080fd5b85804210151561115e57600080fd5b8563ffffffff168614151561117257600080fd5b6000600660008881526020019081526020016000205414151561119457600080fd5b600160056101806040519081016040528060008152602001600081526020018a815260200189815260200160058054905063ffffffff16815260200188600019168152602001876000191681526020018660001916815260200160008019168152602001600015158152602001600015158152602001600115158152509080600181540180825580915050906001820390600052602060002090600c0201600090919290919091506000820151816000015560208201518160010155604082015181600201556060820151816003015560808201518160040160006101000a81548163ffffffff021916908363ffffffff16021790555060a0820151816005019060001916905560c0820151816006019060001916905560e0820151816007019060001916905561010082015181600801906000191690556101208201518160090160006101000a81548160ff0219169083151502179055506101408201518160090160016101000a81548160ff0219169083151502179055506101608201518160090160026101000a81548160ff02191690831515021790555050500391508163ffffffff1660066000888152602001908152602001600020819055507f74d6513caa0390bd234d794e20734fb537223d7b91243ea488cedc1806900b6c87838787604051808581526020018463ffffffff1663ffffffff1681526020018360001916600019168152602001826000191660001916815260200194505050505060405180910390a150505050505050565b6000600760009054906101000a900473ffffffffffffffffffffffffffffffffffffffff1673ffffffffffffffffffffffffffffffffffffffff163373ffffffffffffffffffffffffffffffffffffffff1614151561142457600080fd5b6005600660008481526020019081526020016000205481548110151561144657fe5b90600052602060002090600c0201905060018160090160016101000a81548160ff02191690831515021790555060018160090160006101000a81548160ff02191690831515021790555060008160090160026101000a81548160ff0219169083151502179055507f197768be5c070b44a8b44374d3a81d98f204d017039f19e5781d3f309d19bcb581600301548260090160009054906101000a900460ff168360090160019054906101000a900460ff168460090160029054906101000a900460ff166040518085815260200184151515158152602001831515151581526020018215151515815260200194505050505060405180910390a15050565b6060806060806060806000888890506040519080825280602002602001820160405280156115805781602001602082028038833980820191505090505b509350888890506040519080825280602002602001820160405280156115b55781602001602082028038833980820191505090505b509250888890506040519080825280602002602001820160405280156115ea5781602001602082028038833980820191505090505b509150600090505b88889050811015611707576005898983818110151561160d57fe5b9050602002013581548110151561162057fe5b90600052602060002090600c020160080154848281518110151561164057fe5b9060200190602002019060001916908160001916815250506005898983818110151561166857fe5b9050602002013581548110151561167b57fe5b90600052602060002090600c020160000154838281518110151561169b57fe5b9060200190602002018181525050600589898381811015156116b957fe5b905060200201358154811015156116cc57fe5b90600052602060002090600c02016001015482828151811015156116ec57fe5b906020019060200201818152505080806001019150506115f2565b838383965096509650505050509250925092565b60608060003073ffffffffffffffffffffffffffffffffffffffff16316117766040805190810160405280600381526020017f55524c0000000000000000000000000000000000000000000000000000000000815250611f28565b111561180f577ffee95ecae0c8f7f0743ec0ad254c78ab75e5ecca9f1ddcd9f11f9a98124b96bc6040518080602001828103825260238152602001807f4e6f7420656e6f7567682066756e647320666f72206f7261636c697a6520717581526020017f657279000000000000000000000000000000000000000000000000000000000081525060400191505060405180910390a1611a40565b7ffee95ecae0c8f7f0743ec0ad254c78ab75e5ecca9f1ddcd9f11f9a98124b96bc6040518080602001828103825260288152602001807f4f7261636c697a65207175657279207761732073656e742c20636865636b696e81526020017f6720616e7377657200000000000000000000000000000000000000000000000081525060400191505060405180910390a16118f56118de6040805190810160405280600581526020017f444f5441320000000000000000000000000000000000000000000000000000008152506122f8565b6118e7866122f8565b61232690919063ffffffff16565b15611a3f57611979611906866122f8565b61196b606060405190810160405280603581526020017f6a736f6e2868747470733a2f2f6574686c616e7469732d6272696467652e686581526020017f726f6b756170702e636f6d2f6170692f646f74612f00000000000000000000008152506122f8565b61233c90919063ffffffff16565b92506119d36119bc6040805190810160405280600d81526020017f292e6d6174636857696e6e6572000000000000000000000000000000000000008152506122f8565b6119c5856122f8565b61233c90919063ffffffff16565b9150611a146040805190810160405280600381526020017f55524c0000000000000000000000000000000000000000000000000000000000815250836123be565b9050611a1f85612960565b600860008360001916600019168152602001908152602001600020819055505b5b5050505050565b600760009054906101000a900473ffffffffffffffffffffffffffffffffffffffff1673ffffffffffffffffffffffffffffffffffffffff163373ffffffffffffffffffffffffffffffffffffffff16141515611aa357600080fd5b600073ffffffffffffffffffffffffffffffffffffffff168173ffffffffffffffffffffffffffffffffffffffff1614151515611adf57600080fd5b8073ffffffffffffffffffffffffffffffffffffffff16600760009054906101000a900473ffffffffffffffffffffffffffffffffffffffff1673ffffffffffffffffffffffffffffffffffffffff167f8be0079c531659141344cd1fd0a4f28419497f9722a3daafe3b4186f6b6457e060405160405180910390a380600760006101000a81548173ffffffffffffffffffffffffffffffffffffffff021916908373ffffffffffffffffffffffffffffffffffffffff16021790555050565b6000806000809054906101000a900473ffffffffffffffffffffffffffffffffffffffff1673ffffffffffffffffffffffffffffffffffffffff161480611c0f57506000611c0d6000809054906101000a900473ffffffffffffffffffffffffffffffffffffffff16612974565b145b15611c2057611c1e600061297f565b505b6000809054906101000a900473ffffffffffffffffffffffffffffffffffffffff1673ffffffffffffffffffffffffffffffffffffffff166338cc48316040518163ffffffff167c0100000000000000000000000000000000000000000000000000000000028152600401602060405180830381600087803b158015611ca557600080fd5b505af1158015611cb9573d6000803e3d6000fd5b505050506040513d6020811015611ccf57600080fd5b810190808051906020019092919050505073ffffffffffffffffffffffffffffffffffffffff16600160009054906101000a900473ffffffffffffffffffffffffffffffffffffffff1673ffffffffffffffffffffffffffffffffffffffff16141515611e37576000809054906101000a900473ffffffffffffffffffffffffffffffffffffffff1673ffffffffffffffffffffffffffffffffffffffff166338cc48316040518163ffffffff167c0100000000000000000000000000000000000000000000000000000000028152600401602060405180830381600087803b158015611dbb57600080fd5b505af1158015611dcf573d6000803e3d6000fd5b505050506040513d6020811015611de557600080fd5b8101908080519060200190929190505050600160006101000a81548173ffffffffffffffffffffffffffffffffffffffff021916908373ffffffffffffffffffffffffffffffffffffffff1602179055505b600160009054906101000a900473ffffffffffffffffffffffffffffffffffffffff1673ffffffffffffffffffffffffffffffffffffffff1663c281d19e6040518163ffffffff167c0100000000000000000000000000000000000000000000000000000000028152600401602060405180830381600087803b158015611ebd57600080fd5b505af1158015611ed1573d6000803e3d6000fd5b505050506040513d6020811015611ee757600080fd5b8101908080519060200190929190505050905090565b60006060829050600081511415611f1a5760006001029150611f22565b602083015191505b50919050565b6000806000809054906101000a900473ffffffffffffffffffffffffffffffffffffffff1673ffffffffffffffffffffffffffffffffffffffff161480611f9857506000611f966000809054906101000a900473ffffffffffffffffffffffffffffffffffffffff16612974565b145b15611fa957611fa7600061297f565b505b6000809054906101000a900473ffffffffffffffffffffffffffffffffffffffff1673ffffffffffffffffffffffffffffffffffffffff166338cc48316040518163ffffffff167c0100000000000000000000000000000000000000000000000000000000028152600401602060405180830381600087803b15801561202e57600080fd5b505af1158015612042573d6000803e3d6000fd5b505050506040513d602081101561205857600080fd5b810190808051906020019092919050505073ffffffffffffffffffffffffffffffffffffffff16600160009054906101000a900473ffffffffffffffffffffffffffffffffffffffff1673ffffffffffffffffffffffffffffffffffffffff161415156121c0576000809054906101000a900473ffffffffffffffffffffffffffffffffffffffff1673ffffffffffffffffffffffffffffffffffffffff166338cc48316040518163ffffffff167c0100000000000000000000000000000000000000000000000000000000028152600401602060405180830381600087803b15801561214457600080fd5b505af1158015612158573d6000803e3d6000fd5b505050506040513d602081101561216e57600080fd5b8101908080519060200190929190505050600160006101000a81548173ffffffffffffffffffffffffffffffffffffffff021916908373ffffffffffffffffffffffffffffffffffffffff1602179055505b600160009054906101000a900473ffffffffffffffffffffffffffffffffffffffff1673ffffffffffffffffffffffffffffffffffffffff1663524f3889836040518263ffffffff167c01000000000000000000000000000000000000000000000000000000000281526004018080602001828103825283818151815260200191508051906020019080838360005b8381101561226a57808201518184015260208101905061224f565b50505050905090810190601f1680156122975780820380516001836020036101000a031916815260200191505b5092505050602060405180830381600087803b1580156122b657600080fd5b505af11580156122ca573d6000803e3d6000fd5b505050506040513d60208110156122e057600080fd5b81019080805190602001909291905050509050919050565b612300613232565b600060208301905060408051908101604052808451815260200182815250915050919050565b6000806123338484612990565b14905092915050565b606080600083600001518560000151016040519080825280601f01601f19166020018201604052801561237e5781602001602082028038833980820191505090505b50915060208201905061239a8186602001518760000151612a4a565b6123b38560000151820185602001518660000151612a4a565b819250505092915050565b60008060008060009054906101000a900473ffffffffffffffffffffffffffffffffffffffff1673ffffffffffffffffffffffffffffffffffffffff1614806124305750600061242e6000809054906101000a900473ffffffffffffffffffffffffffffffffffffffff16612974565b145b156124415761243f600061297f565b505b6000809054906101000a900473ffffffffffffffffffffffffffffffffffffffff1673ffffffffffffffffffffffffffffffffffffffff166338cc48316040518163ffffffff167c0100000000000000000000000000000000000000000000000000000000028152600401602060405180830381600087803b1580156124c657600080fd5b505af11580156124da573d6000803e3d6000fd5b505050506040513d60208110156124f057600080fd5b810190808051906020019092919050505073ffffffffffffffffffffffffffffffffffffffff16600160009054906101000a900473ffffffffffffffffffffffffffffffffffffffff1673ffffffffffffffffffffffffffffffffffffffff16141515612658576000809054906101000a900473ffffffffffffffffffffffffffffffffffffffff1673ffffffffffffffffffffffffffffffffffffffff166338cc48316040518163ffffffff167c0100000000000000000000000000000000000000000000000000000000028152600401602060405180830381600087803b1580156125dc57600080fd5b505af11580156125f0573d6000803e3d6000fd5b505050506040513d602081101561260657600080fd5b8101908080519060200190929190505050600160006101000a81548173ffffffffffffffffffffffffffffffffffffffff021916908373ffffffffffffffffffffffffffffffffffffffff1602179055505b600160009054906101000a900473ffffffffffffffffffffffffffffffffffffffff1673ffffffffffffffffffffffffffffffffffffffff1663524f3889856040518263ffffffff167c01000000000000000000000000000000000000000000000000000000000281526004018080602001828103825283818151815260200191508051906020019080838360005b838110156127025780820151818401526020810190506126e7565b50505050905090810190601f16801561272f5780820380516001836020036101000a031916815260200191505b5092505050602060405180830381600087803b15801561274e57600080fd5b505af1158015612762573d6000803e3d6000fd5b505050506040513d602081101561277857600080fd5b8101908080519060200190929190505050905062030d403a02670de0b6b3a7640000018111156127ae5760006001029150612959565b600160009054906101000a900473ffffffffffffffffffffffffffffffffffffffff1673ffffffffffffffffffffffffffffffffffffffff1663adf59f9982600087876040518563ffffffff167c0100000000000000000000000000000000000000000000000000000000028152600401808481526020018060200180602001838103835285818151815260200191508051906020019080838360005b8381101561286657808201518184015260208101905061284b565b50505050905090810190601f1680156128935780820380516001836020036101000a031916815260200191505b50838103825284818151815260200191508051906020019080838360005b838110156128cc5780820151818401526020810190506128b1565b50505050905090810190601f1680156128f95780820380516001836020036101000a031916815260200191505b50955050505050506020604051808303818588803b15801561291a57600080fd5b505af115801561292e573d6000803e3d6000fd5b50505050506040513d602081101561294557600080fd5b810190808051906020019092919050505091505b5092915050565b600061296d826000612a95565b9050919050565b6000813b9050919050565b6000612989612d89565b9050919050565b60008060008060008060008060008a6000015197508a600001518a6000015110156129bd57896000015197505b8a60200151965089602001519550600094505b87851015612a2e5786519350855192508284141515612a1757600185896020030160080260020a03199150818316828516039050600081141515612a1657809850612a3c565b5b6020870196506020860195506020850194506129d0565b89600001518b600001510398505b505050505050505092915050565b60005b602082101515612a725782518452602084019350602083019250602082039150612a4d565b6001826020036101000a0390508019835116818551168181178652505050505050565b6000606060008060008693506000925060009150600090505b8351811015612d6a5760307f0100000000000000000000000000000000000000000000000000000000000000028482815181101515612ae957fe5b9060200101517f010000000000000000000000000000000000000000000000000000000000000090047f0100000000000000000000000000000000000000000000000000000000000000027effffffffffffffffffffffffffffffffffffffffffffffffffffffffffffff191610158015612c01575060397f0100000000000000000000000000000000000000000000000000000000000000028482815181101515612b9157fe5b9060200101517f010000000000000000000000000000000000000000000000000000000000000090047f0100000000000000000000000000000000000000000000000000000000000000027effffffffffffffffffffffffffffffffffffffffffffffffffffffffffffff191611155b15612cb2578115612c24576000861415612c1a57612d6a565b8580600190039650505b600a8302925060308482815181101515612c3a57fe5b9060200101517f010000000000000000000000000000000000000000000000000000000000000090047f0100000000000000000000000000000000000000000000000000000000000000027f010000000000000000000000000000000000000000000000000000000000000090040383019250612d5d565b602e7f0100000000000000000000000000000000000000000000000000000000000000028482815181101515612ce457fe5b9060200101517f010000000000000000000000000000000000000000000000000000000000000090047f0100000000000000000000000000000000000000000000000000000000000000027effffffffffffffffffffffffffffffffffffffffffffffffffffffffffffff19161415612d5c57600191505b5b8080600101915050612aae565b6000861115612d7c5785600a0a830292505b8294505050505092915050565b600080612da9731d3b2638a7cc9f2cb3d298a3da7a90b67e5506ed612974565b1115612e4a57731d3b2638a7cc9f2cb3d298a3da7a90b67e5506ed6000806101000a81548173ffffffffffffffffffffffffffffffffffffffff021916908373ffffffffffffffffffffffffffffffffffffffff160217905550612e416040805190810160405280600b81526020017f6574685f6d61696e6e6574000000000000000000000000000000000000000000815250613218565b60019050613215565b6000612e6973c03a2615d5efaf5f49f60b7bb6583eaec212fdf1612974565b1115612f0a5773c03a2615d5efaf5f49f60b7bb6583eaec212fdf16000806101000a81548173ffffffffffffffffffffffffffffffffffffffff021916908373ffffffffffffffffffffffffffffffffffffffff160217905550612f016040805190810160405280600c81526020017f6574685f726f707374656e330000000000000000000000000000000000000000815250613218565b60019050613215565b6000612f2973b7a07bcf2ba2f2703b24c0691b5278999c59ac7e612974565b1115612fca5773b7a07bcf2ba2f2703b24c0691b5278999c59ac7e6000806101000a81548173ffffffffffffffffffffffffffffffffffffffff021916908373ffffffffffffffffffffffffffffffffffffffff160217905550612fc16040805190810160405280600981526020017f6574685f6b6f76616e0000000000000000000000000000000000000000000000815250613218565b60019050613215565b6000612fe973146500cfd35b22e4a392fe0adc06de1a1368ed48612974565b111561308a5773146500cfd35b22e4a392fe0adc06de1a1368ed486000806101000a81548173ffffffffffffffffffffffffffffffffffffffff021916908373ffffffffffffffffffffffffffffffffffffffff1602179055506130816040805190810160405280600b81526020017f6574685f72696e6b656279000000000000000000000000000000000000000000815250613218565b60019050613215565b60006130a9736f485c8bf6fc43ea212e93bbf8ce046c7f1cb475612974565b111561310c57736f485c8bf6fc43ea212e93bbf8ce046c7f1cb4756000806101000a81548173ffffffffffffffffffffffffffffffffffffffff021916908373ffffffffffffffffffffffffffffffffffffffff16021790555060019050613215565b600061312b7320e12a1f859b3feae5fb2a0a32c18f5a65555bbf612974565b111561318e577320e12a1f859b3feae5fb2a0a32c18f5a65555bbf6000806101000a81548173ffffffffffffffffffffffffffffffffffffffff021916908373ffffffffffffffffffffffffffffffffffffffff16021790555060019050613215565b60006131ad7351efaf4c8b3c9afbd5ab9f4bbc82784ab6ef8faa612974565b1115613210577351efaf4c8b3c9afbd5ab9f4bbc82784ab6ef8faa6000806101000a81548173ffffffffffffffffffffffffffffffffffffffff021916908373ffffffffffffffffffffffffffffffffffffffff16021790555060019050613215565b600090505b90565b806002908051906020019061322e92919061324c565b5050565b604080519081016040528060008152602001600081525090565b828054600181600116156101000203166002900490600052602060002090601f016020900481019282601f1061328d57805160ff19168380011785556132bb565b828001600101855582156132bb579182015b828111156132ba57825182559160200191906001019061329f565b5b5090506132c891906132cc565b5090565b6132ee91905b808211156132ea5760008160009055506001016132d2565b5090565b905600a165627a7a72305820f9860b3a82dfdb74c5bee59b2a2f4934d95e6a27dcfcbaf97e50aee9c4ca1f1e0029",
  "source": "pragma solidity ^0.4.24;\n\nimport \"./Ownable.sol\";\nimport \"./DataSource.sol\";\n\ncontract MatchFactory is DataSource {\n\n  event NewMatch(uint256 startTime, uint32 id, bytes32 teamA, bytes32 teamB);\n  event CancelMatch(uint256 matchId, bool withdrawable, bool canceled, bool bettable);\n\n  modifier beforeStart(uint256 _timestamp) {\n    require(now < _timestamp);\n    _;\n  }\n\n  function addMatch(\n    uint256 _startTime, \n    uint256 _matchId, \n    bytes32 _teamA, \n    bytes32 _teamB, \n    bytes32 _gameType\n  ) \n    external \n    onlyOwner \n    beforeStart(_startTime) \n  {\n    require(_matchId == uint256(uint32(_matchId)));\n    require(matchIdToId[_matchId] == 0);    \n\n    uint id = matches.push(Match({\n      startTime: _startTime,\n      matchId: _matchId,\n      id: uint32(matches.length),\n      teamATotalBets: 0,\n      teamBTotalBets: 0,\n      teamA: _teamA,\n      teamB: _teamB,\n      gameType: _gameType,\n      winner: \"\",\n      withdrawable: false,\n      canceled: false,\n      bettable: true\n    })) - 1;\n    \n    matchIdToId[_matchId] = uint32(id);\n    emit NewMatch(_startTime, uint32(id), _teamA, _teamB);\n  }\n\n  function cancelMatch(uint256 _matchId) external onlyOwner {\n    Match storage m = matches[matchIdToId[_matchId]];\n    m.canceled = true;\n    m.withdrawable = true;\n    m.bettable = false;\n    emit CancelMatch(m.matchId, m.withdrawable, m.canceled, m.bettable);\n  }\n\n  function getMatchesCount() public view returns (uint) {\n    return matches.length;\n  }\n\n  // The getters for the for the Matches struct has been separated into different \n  // functions because of solidity's 16 local variable limitation\n  function getMatchesInfo(uint256[] indexes) \n    external \n    view \n    returns (\n      uint32[],\n      uint256[],\n      uint256[],\n      bytes32[],\n      bytes32[],\n      bytes32[]\n    ) {\n\n      uint32[] memory ids = new uint32[](indexes.length);\n      uint256[] memory startTimes = new uint256[](indexes.length);\n      uint256[] memory matchIds = new uint256[](indexes.length);\n      bytes32[] memory teamAs = new bytes32[](indexes.length);\n      bytes32[] memory teamBs = new bytes32[](indexes.length);\n      bytes32[] memory gameTypesArray = new bytes32[](indexes.length);\n\n      for (uint i = 0; i < indexes.length; i++) {\n        ids[i] = matches[indexes[i]].id;\n        startTimes[i] = matches[indexes[i]].startTime;\n        matchIds[i] = matches[indexes[i]].matchId;\n        teamAs[i] = matches[indexes[i]].teamA;\n        teamBs[i] = matches[indexes[i]].teamB;\n        gameTypesArray[i] = matches[indexes[i]].gameType;\n      }\n\n      return (ids, startTimes, matchIds, teamAs, teamBs, gameTypesArray);\n  }\n\n  function getMatchesStatus(uint256[] indexes) \n    external \n    view \n    returns (\n      bool[],\n      bool[],\n      bool[]\n    ) {\n\n      bool[] memory withdrawableArray = new bool[](indexes.length);\n      bool[] memory canceledArray = new bool[](indexes.length);\n      bool[] memory bettableArray = new bool[](indexes.length);\n\n      for (uint i = 0; i < indexes.length; i++) {\n        withdrawableArray[i] = matches[indexes[i]].withdrawable;\n        canceledArray[i] = matches[indexes[i]].canceled;\n        bettableArray[i] = matches[indexes[i]].bettable;\n      }\n\n      return (withdrawableArray, canceledArray, bettableArray);\n  }\n\n  function getMatchesResult(uint256[] indexes) \n    external \n    view \n    returns (\n      bytes32[],\n      uint[],\n      uint[]\n    ) {\n\n      bytes32[] memory winners = new bytes32[](indexes.length);\n      uint[] memory teamATotalBets = new uint[](indexes.length);\n      uint[] memory teamBTotalBets = new uint[](indexes.length);\n\n      for (uint i = 0; i < indexes.length; i++) {\n        winners[i] = matches[indexes[i]].winner;\n        teamATotalBets[i] = matches[indexes[i]].teamATotalBets;\n        teamBTotalBets[i] = matches[indexes[i]].teamBTotalBets;\n      }\n\n      return (winners, teamATotalBets, teamBTotalBets);\n  }\n\n}\n",
  "sourcePath": "/Users/liarolf/Documents/Ethereum/Ethlantis/contracts/MatchFactory.sol",
  "compiler": {
    "name": "solc",
    "version": "0.4.24+commit.e67f0147.Emscripten.clang"
  },
  "schemaVersion": "2.0.0",
  "updatedAt": "2018-07-22T07:39:16.712Z"
}